{
  "contractName": "Arrays",
  "abi": [
    {
      "constant": true,
      "inputs": [
        {
          "name": "self",
          "type": "Arrays.uint256NoDup storage"
        },
        {
          "name": "value",
          "type": "uint256"
        }
      ],
      "name": "contains",
      "outputs": [
        {
          "name": "exists",
          "type": "bool"
        }
      ],
      "payable": false,
      "stateMutability": "view",
      "type": "function"
    },
    {
      "constant": true,
      "inputs": [
        {
          "name": "self",
          "type": "Arrays.bytes32NoDup storage"
        },
        {
          "name": "value",
          "type": "bytes32"
        }
      ],
      "name": "contains",
      "outputs": [
        {
          "name": "exists",
          "type": "bool"
        }
      ],
      "payable": false,
      "stateMutability": "view",
      "type": "function"
    },
    {
      "constant": false,
      "inputs": [
        {
          "name": "self",
          "type": "Arrays.bytes32NoDup storage"
        },
        {
          "name": "value",
          "type": "bytes32"
        }
      ],
      "name": "add",
      "outputs": [],
      "payable": false,
      "stateMutability": "nonpayable",
      "type": "function"
    },
    {
      "constant": false,
      "inputs": [
        {
          "name": "self",
          "type": "Arrays.uint256NoDup storage"
        },
        {
          "name": "value",
          "type": "uint256"
        }
      ],
      "name": "add",
      "outputs": [],
      "payable": false,
      "stateMutability": "nonpayable",
      "type": "function"
    },
    {
      "constant": false,
      "inputs": [
        {
          "name": "self",
          "type": "Arrays.uint256NoDup storage"
        },
        {
          "name": "value",
          "type": "uint256"
        }
      ],
      "name": "remove",
      "outputs": [],
      "payable": false,
      "stateMutability": "nonpayable",
      "type": "function"
    },
    {
      "constant": false,
      "inputs": [
        {
          "name": "self",
          "type": "Arrays.bytes32NoDup storage"
        },
        {
          "name": "value",
          "type": "bytes32"
        }
      ],
      "name": "remove",
      "outputs": [],
      "payable": false,
      "stateMutability": "nonpayable",
      "type": "function"
    }
  ],
  "bytecode": "0x6103fb610030600b82828239805160001a6073146000811461002057610022565bfe5b5030600052607381538281f300730000000000000000000000000000000000000000301460806040526004361061008e5763ffffffff7c01000000000000000000000000000000000000000000000000000000006000350416633004e44e8114610093578063351dde77146100b05780636c5fa4a3146100cb57806379c7d480146100ed578063b7f663d7146100fb578063f9eb626d14610116575b600080fd5b81801561009f57600080fd5b506100ae600435602435610131565b005b8180156100bc57600080fd5b506100ae600435602435610170565b6100d960043560243561023c565b604080519115158252519081900360200190f35b6100d96004356024356102a2565b81801561010757600080fd5b506100ae6004356024356102ff565b81801561012257600080fd5b506100ae60043560243561030b565b600061013d83836102a2565b1561014757600080fd5b508154600181810184556000848152602080822084018590559381529301909152604090912055565b600061017c838361023c565b151561018757600080fd5b5060008181526001830160205260409020548254839060001981019081106101ab57fe5b906000526020600020015483600001828154811015156101c757fe5b90600052602060002001819055508083600101600085600001848154811015156101ed57fe5b6000918252602080832090910154835282019290925260400190205582548390600019810190811061021b57fe5b60009182526020822001558254610236846000198301610385565b50505050565b8154600090151561024f5750600061029c565b6000828152600184016020526040812054111561026e5750600161029c565b825482908490600090811061027f57fe5b906000526020600020015414156102985750600161029c565b5060005b92915050565b815460009015156102b55750600061029c565b600082815260018401602052604081205411156102d45750600161029c565b82548290849060009081106102e557fe5b60009182526020909120015414156102985750600161029c565b600061013d838361023c565b600061031783836102a2565b151561032257600080fd5b50600081815260018301602052604090205482548390600019810190811061034657fe5b9060005260206000200154836000018281548110151561036257fe5b60009182526020822001919091558354829160018601918690849081106101ed57fe5b8154818355818111156103a9576000838152602090206103a99181019083016103ae565b505050565b6103cc91905b808211156103c857600081556001016103b4565b5090565b905600a165627a7a72305820418f870cdb5fc7645a676d37e5864bcf343728d5861d1f866e745159ac23f47f0029",
  "source": "pragma solidity 0.4.24;\n\n\n/**\n * @title Arrays\n * @author Wu Di\n * @notice Library for arrays\n */\nlibrary Arrays {\n    // solhint-disable-next-line contract-name-camelcase\n    struct uint256NoDup {\n        uint256[] values;\n        mapping (uint256 => uint256) valueIdx;\n    }\n\n    /**\n     * @dev Check for value in array\n     * @param value Value to check for\n     */\n    function contains(uint256NoDup storage self, uint256 value)\n        public\n        view\n        returns (bool exists)\n    {\n        if (self.values.length == 0) {\n            return false;\n        } else if (self.valueIdx[value] > 0) {\n            return true;\n        } else if (self.values[0] == value) {\n            return true;\n        }\n        return false;\n    }\n\n    /**\n     * @dev Add a value\n     * @param value Value to add\n     */\n    function add(uint256NoDup storage self, uint256 value)\n        public\n    {\n        require(!contains(self, value));\n        uint256 idx = self.values.push(value) - 1;\n        self.valueIdx[value] = idx;\n    }\n\n    /**\n     * @dev Remove value\n     * @param value Value to remove\n     */\n    function remove(uint256NoDup storage self, uint256 value)\n        public\n    {\n        require(contains(self, value));\n        uint256 idx = self.valueIdx[value];\n        self.values[idx] = self.values[self.values.length - 1];\n        self.valueIdx[self.values[idx]] = idx;\n        delete self.values[self.values.length - 1];\n        self.values.length--;\n    }\n\n    // solhint-disable-next-line contract-name-camelcase\n    struct bytes32NoDup {\n        bytes32[] values;\n        mapping (bytes32 => uint256) valueIdx;\n    }\n\n    /**\n     * @dev Check for value in array\n     * @param value Value to check for\n     */\n    function contains(bytes32NoDup storage self, bytes32 value)\n        public\n        view\n        returns (bool exists)\n    {\n        if (self.values.length == 0) {\n            return false;\n        } else if (self.valueIdx[value] > 0) {\n            return true;\n        } else if (self.values[0] == value) {\n            return true;\n        }\n        return false;\n    }\n\n    /**\n     * @dev Add a value\n     * @param value Value to add\n     */\n    function add(bytes32NoDup storage self, bytes32 value)\n        public\n    {\n        require(!contains(self, value));\n        uint256 idx = self.values.push(value) - 1;\n        self.valueIdx[value] = idx;\n    }\n\n    /**\n     * @dev Remove value\n     * @param value Value to remove\n     */\n    function remove(bytes32NoDup storage self, bytes32 value)\n        public\n    {\n        require(contains(self, value));\n        uint256 idx = self.valueIdx[value];\n        self.values[idx] = self.values[self.values.length - 1];\n        self.valueIdx[self.values[idx]] = idx;\n        delete self.values[self.values.length - 1];\n        self.values.length--;\n    }\n}\n",
  "sourcePath": "/Users/lookrain/Documents/work/rate3-monorepo/packages/demo/identity/contracts/Arrays.sol",
  "compiler": {
    "name": "solc",
    "version": "0.4.24+commit.e67f0147.Emscripten.clang"
  },
  "schemaVersion": "2.0.1",
  "updatedAt": "2018-09-19T08:24:13.127Z"
}