{
  "contractName": "Arrays",
  "abi": [
    {
      "constant": true,
      "inputs": [
        {
          "name": "self",
          "type": "Arrays.uint256NoDup storage"
        },
        {
          "name": "value",
          "type": "uint256"
        }
      ],
      "name": "contains",
      "outputs": [
        {
          "name": "exists",
          "type": "bool"
        }
      ],
      "payable": false,
      "stateMutability": "view",
      "type": "function"
    },
    {
      "constant": true,
      "inputs": [
        {
          "name": "self",
          "type": "Arrays.bytes32NoDup storage"
        },
        {
          "name": "value",
          "type": "bytes32"
        }
      ],
      "name": "contains",
      "outputs": [
        {
          "name": "exists",
          "type": "bool"
        }
      ],
      "payable": false,
      "stateMutability": "view",
      "type": "function"
    },
    {
      "constant": false,
      "inputs": [
        {
          "name": "self",
          "type": "Arrays.bytes32NoDup storage"
        },
        {
          "name": "value",
          "type": "bytes32"
        }
      ],
      "name": "add",
      "outputs": [],
      "payable": false,
      "stateMutability": "nonpayable",
      "type": "function"
    },
    {
      "constant": false,
      "inputs": [
        {
          "name": "self",
          "type": "Arrays.uint256NoDup storage"
        },
        {
          "name": "value",
          "type": "uint256"
        }
      ],
      "name": "add",
      "outputs": [],
      "payable": false,
      "stateMutability": "nonpayable",
      "type": "function"
    },
    {
      "constant": false,
      "inputs": [
        {
          "name": "self",
          "type": "Arrays.uint256NoDup storage"
        },
        {
          "name": "value",
          "type": "uint256"
        }
      ],
      "name": "remove",
      "outputs": [],
      "payable": false,
      "stateMutability": "nonpayable",
      "type": "function"
    },
    {
      "constant": false,
      "inputs": [
        {
          "name": "self",
          "type": "Arrays.bytes32NoDup storage"
        },
        {
          "name": "value",
          "type": "bytes32"
        }
      ],
      "name": "remove",
      "outputs": [],
      "payable": false,
      "stateMutability": "nonpayable",
      "type": "function"
    }
  ],
  "bytecode": "0x6105e6610030600b82828239805160001a6073146000811461002057610022565bfe5b5030600052607381538281f300730000000000000000000000000000000000000000301460806040526004361061008e5763ffffffff7c01000000000000000000000000000000000000000000000000000000006000350416633004e44e8114610093578063351dde77146100b05780636c5fa4a3146100cb57806379c7d480146100ed578063b7f663d7146100fb578063f9eb626d14610116575b600080fd5b81801561009f57600080fd5b506100ae600435602435610131565b005b8180156100bc57600080fd5b506100ae6004356024356101d2565b6100d960043560243561035f565b604080519115158252519081900360200190f35b6100d96004356024356103c5565b81801561010757600080fd5b506100ae600435602435610422565b81801561012257600080fd5b506100ae60043560243561042e565b600061013d83836103c5565b156101a957604080517f08c379a000000000000000000000000000000000000000000000000000000000815260206004820152601160248201527f4475706c696361746520656c656d656e74000000000000000000000000000000604482015290519081900360640190fd5b508154600181810184556000848152602080822084018590559381529301909152604090912055565b6000806101df848461035f565b151561024c57604080517f08c379a000000000000000000000000000000000000000000000000000000000815260206004820152601660248201527f456c656d656e7420646f6573206e6f7420657869737400000000000000000000604482015290519081900360640190fd5b50506000818152600183016020526040902054825460001901808214156102ad576000838152600185016020526040812055835484908290811061028c57fe5b600091825260208220015583546102a7856000198301610570565b50610359565b600083815260018501602052604081205583548490829081106102cc57fe5b906000526020600020015484600001838154811015156102e857fe5b906000526020600020018190555081846001016000866000018581548110151561030e57fe5b9060005260206000200154815260200190815260200160002081905550836000018181548110151561033c57fe5b60009182526020822001558354610357856000198301610570565b505b50505050565b81546000901515610372575060006103bf565b60008281526001840160205260408120541115610391575060016103bf565b82548290849060009081106103a257fe5b906000526020600020015414156103bb575060016103bf565b5060005b92915050565b815460009015156103d8575060006103bf565b600082815260018401602052604081205411156103f7575060016103bf565b825482908490600090811061040857fe5b60009182526020909120015414156103bb575060016103bf565b600061013d838361035f565b60008061043b84846103c5565b15156104a857604080517f08c379a000000000000000000000000000000000000000000000000000000000815260206004820152601660248201527f456c656d656e7420646f6573206e6f7420657869737400000000000000000000604482015290519081900360640190fd5b50506000818152600183016020526040902054825460001901808214156104e8576000838152600185016020526040812055835484908290811061028c57fe5b6000838152600185016020526040812055835484908290811061050757fe5b9060005260206000200154846000018381548110151561052357fe5b600091825260208220019190915584548391600187019187908490811061054657fe5b60009182526020808320909101548352820192909252604001902055835484908290811061033c57fe5b81548183558181111561059457600083815260209020610594918101908301610599565b505050565b6105b791905b808211156105b3576000815560010161059f565b5090565b905600a165627a7a72305820b8c5c85d026dfda65ddfc4490f038b8ee7ffba9bd0f7dfec13db24dcc62f50a20029",
  "source": "pragma solidity 0.4.24;\n\n\n/**\n * @title Arrays\n * @author Wu Di\n * @notice Library for arrays\n */\nlibrary Arrays {\n    // solhint-disable-next-line contract-name-camelcase\n    struct uint256NoDup {\n        uint256[] values;\n        mapping (uint256 => uint256) valueIdx;\n    }\n\n    /**\n     * @dev Check for value in array\n     * @param value Value to check for\n     */\n    function contains(uint256NoDup storage self, uint256 value)\n        public\n        view\n        returns (bool exists)\n    {\n        if (self.values.length == 0) {\n            return false;\n        } else if (self.valueIdx[value] > 0) {\n            return true;\n        } else if (self.values[0] == value) {\n            return true;\n        }\n        return false;\n    }\n\n    /**\n     * @dev Add a value\n     * @param value Value to add\n     */\n    function add(uint256NoDup storage self, uint256 value)\n        public\n    {\n        require(!contains(self, value), \"Duplicate element\");\n        uint256 idx = self.values.push(value) - 1;\n        self.valueIdx[value] = idx;\n    }\n\n    /**\n     * @dev Remove value\n     * @param value Value to remove\n     */\n    function remove(uint256NoDup storage self, uint256 value)\n        public\n    {\n        require(contains(self, value), \"Element does not exist\");\n        uint256 idx = self.valueIdx[value];\n        uint256 last = self.values.length - 1;\n        if (idx == last) {\n            self.valueIdx[value] = 0;\n            delete self.values[last];\n            self.values.length--;\n        } else {\n            self.valueIdx[value] = 0;\n            self.values[idx] = self.values[last];\n            self.valueIdx[self.values[idx]] = idx;\n            delete self.values[last];\n            self.values.length--;\n        }\n    }\n\n    // solhint-disable-next-line contract-name-camelcase\n    struct bytes32NoDup {\n        bytes32[] values;\n        mapping (bytes32 => uint256) valueIdx;\n    }\n\n    /**\n     * @dev Check for value in array\n     * @param value Value to check for\n     */\n    function contains(bytes32NoDup storage self, bytes32 value)\n        public\n        view\n        returns (bool exists)\n    {\n        if (self.values.length == 0) {\n            return false;\n        } else if (self.valueIdx[value] > 0) {\n            return true;\n        } else if (self.values[0] == value) {\n            return true;\n        }\n        return false;\n    }\n\n    /**\n     * @dev Add a value\n     * @param value Value to add\n     */\n    function add(bytes32NoDup storage self, bytes32 value)\n        public\n    {\n        require(!contains(self, value), \"Duplicate element\");\n        uint256 idx = self.values.push(value) - 1;\n        self.valueIdx[value] = idx;\n    }\n\n    /**\n     * @dev Remove value\n     * @param value Value to remove\n     */\n    function remove(bytes32NoDup storage self, bytes32 value)\n        public\n    {\n        require(contains(self, value), \"Element does not exist\");\n        uint256 idx = self.valueIdx[value];\n        uint256 last = self.values.length - 1;\n        if (idx == last) {\n            self.valueIdx[value] = 0;\n            delete self.values[last];\n            self.values.length--;\n        } else {\n            self.valueIdx[value] = 0;\n            self.values[idx] = self.values[last];\n            self.valueIdx[self.values[idx]] = idx;\n            delete self.values[last];\n            self.values.length--;\n        }\n    }\n}\n",
  "sourcePath": "/Users/lookrain/Documents/work/rate3-monorepo/packages/demo/identity/contracts/Arrays.sol",
  "compiler": {
    "name": "solc",
    "version": "0.4.24+commit.e67f0147.Emscripten.clang"
  },
  "schemaVersion": "2.0.1",
  "updatedAt": "2018-09-20T03:59:34.706Z"
}