{
  "contractName": "ClaimStore",
  "abi": [
    {
      "constant": true,
      "inputs": [
        {
          "name": "issuer",
          "type": "address"
        },
        {
          "name": "topic",
          "type": "uint256"
        }
      ],
      "name": "getClaimId",
      "outputs": [
        {
          "name": "",
          "type": "bytes32"
        }
      ],
      "payable": false,
      "stateMutability": "pure",
      "type": "function"
    },
    {
      "constant": true,
      "inputs": [
        {
          "name": "subject",
          "type": "address"
        },
        {
          "name": "topic",
          "type": "uint256"
        },
        {
          "name": "data",
          "type": "bytes"
        }
      ],
      "name": "claimToSign",
      "outputs": [
        {
          "name": "",
          "type": "bytes32"
        }
      ],
      "payable": false,
      "stateMutability": "pure",
      "type": "function"
    },
    {
      "constant": true,
      "inputs": [
        {
          "name": "toSign",
          "type": "bytes32"
        },
        {
          "name": "signature",
          "type": "bytes"
        }
      ],
      "name": "getSignatureAddress",
      "outputs": [
        {
          "name": "",
          "type": "address"
        }
      ],
      "payable": false,
      "stateMutability": "pure",
      "type": "function"
    }
  ],
  "bytecode": "0x610519610030600b82828239805160001a6073146000811461002057610022565bfe5b5030600052607381538281f300730000000000000000000000000000000000000000301460806040526004361061006d5763ffffffff7c0100000000000000000000000000000000000000000000000000000000600035041663190db86281146100725780631d203be81461009b5780633b8a12c8146100f7575b600080fd5b610089600160a060020a0360043516602435610164565b60408051918252519081900360200190f35b604080516020600460443581810135601f8101849004840285018401909552848452610089948235600160a060020a03169460248035953695946064949201919081908401838280828437509497506102119650505050505050565b60408051602060046024803582810135601f810185900485028601850190965285855261014895833595369560449491939091019190819084018382808284375094975061030e9650505050505050565b60408051600160a060020a039092168252519081900360200190f35b600082826040516020018083600160a060020a0316600160a060020a03166c01000000000000000000000000028152601401828152602001925050506040516020818303038152906040526040518082805190602001908083835b602083106101de5780518252601f1990920191602091820191016101bf565b5181516020939093036101000a600019018019909116921691909117905260405192018290039091209695505050505050565b60008383836040516020018084600160a060020a0316600160a060020a03166c0100000000000000000000000002815260140183815260200182805190602001908083835b602083106102755780518252601f199092019160209182019101610256565b6001836020036101000a03801982511681845116808217855250505050505090500193505050506040516020818303038152906040526040518082805190602001908083835b602083106102da5780518252601f1990920191602091820191016102bb565b5181516020939093036101000a60001901801990911692169190911790526040519201829003909120979650505050505050565b6000610411826040805190810160405280601c81526020017f19457468657265756d205369676e6564204d6573736167653a0a333200000000815250856040516020018083805190602001908083835b6020831061037d5780518252601f19909201916020918201910161035e565b51815160209384036101000a600019018019909216911617905292019384525060408051808503815293820190819052835193945092839250908401908083835b602083106103dd5780518252601f1990920191602091820191016103be565b5181516020939093036101000a60001901801990911692169190911790526040519201829003909120939250506104189050565b9392505050565b6000806000808451604114151561043257600093506104e4565b50505060208201516040830151606084015160001a601b60ff8216101561045757601b015b8060ff16601b1415801561046f57508060ff16601c14155b1561047d57600093506104e4565b60408051600080825260208083018085528a905260ff8516838501526060830187905260808301869052925160019360a0808501949193601f19840193928390039091019190865af11580156104d7573d6000803e3d6000fd5b5050506020604051035193505b505050929150505600a165627a7a723058203b1f39a1aaa218e6e4980c5274821aa2fe1c773d596967918d213113e7e5ea180029",
  "source": "pragma solidity 0.4.24;\n\nimport \"../Arrays.sol\";\nimport \"../ECRecovery.sol\";\n\n\n/**\n * @title ClaimStore\n * @author Wu Di\n * @notice Library for managing ERC735 claims\n */\nlibrary ClaimStore {\n\n    using ECRecovery for bytes32;\n    using Arrays for Arrays.bytes32NoDup;\n\n    bytes constant internal ETH_PREFIX = \"\\x19Ethereum Signed Message:\\n32\";\n\n    struct Claim {\n        uint256 topic;\n        uint256 scheme;\n        address issuer; // msg.sender\n        bytes signature; // this.address + topic + data\n        bytes data;\n        string uri;\n    }\n\n    struct Claims {\n        mapping(bytes32 => Claim) claims;\n        mapping(uint256 => Arrays.bytes32NoDup) claimsByTopic;\n        uint numClaims;\n    }\n\n    /**\n     * @dev Generate claim ID. Especially useful in tests\n     * @param issuer Address of issuer\n     * @param topic Claim topic\n     * @return Claim ID hash\n     */\n    function getClaimId(address issuer, uint256 topic)\n        public\n        pure\n        returns (bytes32)\n    {\n        return keccak256(abi.encodePacked(issuer, topic));\n    }\n\n    /**\n     * @dev Generate claim to sign. Especially useful in tests\n     * @param subject Address about which we're making a claim\n     * @param topic Claim topic\n     * @param data Data for the claim\n     * @return Hash to be signed by claim issuer\n     */\n    function claimToSign(address subject, uint256 topic, bytes data)\n        public\n        pure\n        returns (bytes32)\n    {\n        return keccak256(abi.encodePacked(subject, topic, data));\n    }\n\n    /**\n     * @dev Recover address used to sign a claim\n     * @param toSign Hash to be signed, potentially generated with `claimToSign`\n     * @param signature Signature data i.e. signed hash\n     * @return address recovered from `signature` which signed the `toSign` hash\n     */\n    function getSignatureAddress(bytes32 toSign, bytes signature)\n        public\n        pure\n        returns (address)\n    {\n        return keccak256(abi.encodePacked(ETH_PREFIX, toSign)).recover(signature);\n    }\n\n    /**\n     * @dev Checks whether the claimId exists in the store\n     * @param _claimId Claim ID to check\n     * @return `true` if the claim is found\n     */\n    function exists(Claims storage self, bytes32 _claimId)\n        internal\n        view\n        returns (bool)\n    {\n        return self.claims[_claimId].issuer != address(0);\n    }\n\n    /**\n     * @dev Requests the ADDITION or the CHANGE of a claim from an issuer.\n     *  Claims can requested to be added by anybody, including the claim holder itself (self issued).\n     * @param _topic Type of claim\n     * @param _scheme Scheme used for the signatures\n     * @param _issuer Address of issuer\n     * @param _signature The actual signature\n     * @param _data The data that was signed\n     * @param _uri The location of the claim\n     * @return `true` if the claim is a new claim, `false` if it is updated\n     */\n    function add(\n        Claims storage self,\n        uint256 _topic,\n        uint256 _scheme,\n        address _issuer,\n        bytes _signature,\n        bytes _data,\n        string _uri\n    )\n        internal\n        returns (\n            bytes32 claimId,\n            bool isNew\n        )\n    {\n\n        claimId = getClaimId(_issuer, _topic);\n\n        if (exists(self, claimId)) {\n            // You can't change issuer or topic without affecting the claimId,\n            // so we don't need to update those two fields\n            Claim storage c = self.claims[claimId];\n            c.scheme = _scheme;\n            c.signature = _signature;\n            c.data = _data;\n            c.uri = _uri;\n\n            return (claimId, false);\n        } else {\n            self.claims[claimId] = Claim(\n                _topic,\n                _scheme,\n                _issuer,\n                _signature,\n                _data,\n                _uri\n            );\n            self.claimsByTopic[_topic].add(claimId);\n            self.numClaims++;\n\n            return (claimId, true);\n        }\n    }\n\n    /**\n     * @dev Removes a claim.\n     * @param _claimId Claim ID to remove\n     * @return `true` if the claim is found and removed\n     */\n    function remove(Claims storage self, bytes32 _claimId)\n        internal\n        returns (bool success)\n    {\n        Claim memory c = self.claims[_claimId];\n        // Must exist\n        if (!exists(self, _claimId)) {\n            return false;\n        }\n        // Remove from mapping\n        delete self.claims[_claimId];\n        // Remove from type array\n        self.claimsByTopic[c.topic].remove(_claimId);\n        // Decrement\n        self.numClaims--;\n        return true;\n    }\n\n    /**\n     * @dev Returns a claim by ID\n     * @return (topic, scheme, issuer, signature, data, uri) tuple with claim data\n     */\n    function get(Claims storage self, bytes32 _claimId)\n        internal\n        view\n        returns (\n            uint256 topic,\n            uint256 scheme,\n            address issuer,\n            bytes signature,\n            bytes data,\n            string uri\n        )\n    {\n        require(exists(self, _claimId));\n        Claim memory c = self.claims[_claimId];\n        topic = c.topic;\n        scheme = c.scheme;\n        issuer = c.issuer;\n        signature = c.signature;\n        data = c.data;\n        uri = c.uri;\n    }\n\n    /**\n     * @dev Returns claims by type\n     * @param _topic Type of claims to return\n     * @return array of claim IDs\n     */\n    function getClaimIdsByTopic(Claims storage self, uint256 _topic)\n        internal\n        view\n        returns(bytes32[])\n    {\n        return self.claimsByTopic[_topic].values;\n    }\n}",
  "sourcePath": "/Users/lookrain/Documents/work/rate3-monorepo/packages/demo/identity/contracts/lib/ClaimStore.sol",
  "compiler": {
    "name": "solc",
    "version": "0.4.24+commit.e67f0147.Emscripten.clang"
  },
  "schemaVersion": "2.0.1",
  "updatedAt": "2018-09-19T08:24:13.133Z"
}