{
  "contractName": "ClaimStore",
  "abi": [
    {
      "constant": true,
      "inputs": [
        {
          "name": "issuer",
          "type": "address"
        },
        {
          "name": "topic",
          "type": "uint256"
        }
      ],
      "name": "getClaimId",
      "outputs": [
        {
          "name": "",
          "type": "bytes32"
        }
      ],
      "payable": false,
      "stateMutability": "pure",
      "type": "function"
    },
    {
      "constant": true,
      "inputs": [
        {
          "name": "subject",
          "type": "address"
        },
        {
          "name": "topic",
          "type": "uint256"
        },
        {
          "name": "data",
          "type": "bytes"
        }
      ],
      "name": "claimToSign",
      "outputs": [
        {
          "name": "",
          "type": "bytes32"
        }
      ],
      "payable": false,
      "stateMutability": "pure",
      "type": "function"
    },
    {
      "constant": true,
      "inputs": [
        {
          "name": "toSign",
          "type": "bytes32"
        },
        {
          "name": "signature",
          "type": "bytes"
        }
      ],
      "name": "getSignatureAddress",
      "outputs": [
        {
          "name": "",
          "type": "address"
        }
      ],
      "payable": false,
      "stateMutability": "pure",
      "type": "function"
    },
    {
      "constant": true,
      "inputs": [
        {
          "name": "self",
          "type": "ClaimStore.Claims storage"
        },
        {
          "name": "_claimId",
          "type": "bytes32"
        }
      ],
      "name": "exists",
      "outputs": [
        {
          "name": "",
          "type": "bool"
        }
      ],
      "payable": false,
      "stateMutability": "view",
      "type": "function"
    },
    {
      "constant": false,
      "inputs": [
        {
          "name": "self",
          "type": "ClaimStore.Claims storage"
        },
        {
          "name": "_topic",
          "type": "uint256"
        },
        {
          "name": "_scheme",
          "type": "uint256"
        },
        {
          "name": "_issuer",
          "type": "address"
        },
        {
          "name": "_signature",
          "type": "bytes"
        },
        {
          "name": "_data",
          "type": "bytes"
        },
        {
          "name": "_uri",
          "type": "string"
        }
      ],
      "name": "add",
      "outputs": [
        {
          "name": "claimId",
          "type": "bytes32"
        },
        {
          "name": "isNew",
          "type": "bool"
        }
      ],
      "payable": false,
      "stateMutability": "nonpayable",
      "type": "function"
    },
    {
      "constant": false,
      "inputs": [
        {
          "name": "self",
          "type": "ClaimStore.Claims storage"
        },
        {
          "name": "_claimId",
          "type": "bytes32"
        }
      ],
      "name": "remove",
      "outputs": [
        {
          "name": "success",
          "type": "bool"
        }
      ],
      "payable": false,
      "stateMutability": "nonpayable",
      "type": "function"
    },
    {
      "constant": true,
      "inputs": [
        {
          "name": "self",
          "type": "ClaimStore.Claims storage"
        },
        {
          "name": "_claimId",
          "type": "bytes32"
        }
      ],
      "name": "get",
      "outputs": [
        {
          "name": "topic",
          "type": "uint256"
        },
        {
          "name": "scheme",
          "type": "uint256"
        },
        {
          "name": "issuer",
          "type": "address"
        },
        {
          "name": "signature",
          "type": "bytes"
        },
        {
          "name": "data",
          "type": "bytes"
        },
        {
          "name": "uri",
          "type": "string"
        }
      ],
      "payable": false,
      "stateMutability": "view",
      "type": "function"
    },
    {
      "constant": true,
      "inputs": [
        {
          "name": "self",
          "type": "ClaimStore.Claims storage"
        },
        {
          "name": "_topic",
          "type": "uint256"
        }
      ],
      "name": "getClaimIdsByTopic",
      "outputs": [
        {
          "name": "",
          "type": "bytes32[]"
        }
      ],
      "payable": false,
      "stateMutability": "view",
      "type": "function"
    }
  ],
  "bytecode": "0x6111b5610030600b82828239805160001a6073146000811461002057610022565bfe5b5030600052607381538281f30073000000000000000000000000000000000000000030146080604052600436106100a45763ffffffff7c0100000000000000000000000000000000000000000000000000000000600035041663190db86281146100a95780631d203be8146100d257806339f752791461012e5780633b8a12c8146101505780634a5f431f146101bd5780634adcb5371461033657806391ac3cbe14610394578063eef04d50146103af575b600080fd5b6100c0600160a060020a03600435166024356104b8565b60408051918252519081900360200190f35b604080516020600460443581810135601f81018490048402850184019095528484526100c0948235600160a060020a03169460248035953695946064949201919081908401838280828437509497506105659650505050505050565b61013c600435602435610662565b604080519115158252519081900360200190f35b60408051602060046024803582810135601f81018590048502860185019096528585526101a19583359536956044949193909101919081908401838280828437509497506106839650505050505050565b60408051600160a060020a039092168252519081900360200190f35b6101cb60043560243561078d565b6040518087815260200186815260200185600160a060020a0316600160a060020a03168152602001806020018060200180602001848103845287818151815260200191508051906020019080838360005b8381101561023457818101518382015260200161021c565b50505050905090810190601f1680156102615780820380516001836020036101000a031916815260200191505b50848103835286518152865160209182019188019080838360005b8381101561029457818101518382015260200161027c565b50505050905090810190601f1680156102c15780820380516001836020036101000a031916815260200191505b50848103825285518152855160209182019187019080838360005b838110156102f45781810151838201526020016102dc565b50505050905090810190601f1680156103215780820380516001836020036101000a031916815260200191505b50995050505050505050505060405180910390f35b6103446004356024356109dd565b60408051602080825283518183015283519192839290830191858101910280838360005b83811015610380578181015183820152602001610368565b505050509050019250505060405180910390f35b8180156103a057600080fd5b5061013c600435602435610a43565b8180156103bb57600080fd5b50604080516020601f60843560048181013592830184900484028501840190955281845261049f94803594602480359560443595600160a060020a03606435169536959460a494909391019190819084018382808284375050604080516020601f89358b018035918201839004830284018301909452808352979a99988101979196509182019450925082915084018382808284375050604080516020601f89358b018035918201839004830284018301909452808352979a999881019791965091820194509250829150840183828082843750949750610d709650505050505050565b6040805192835290151560208301528051918290030190f35b600082826040516020018083600160a060020a0316600160a060020a03166c01000000000000000000000000028152601401828152602001925050506040516020818303038152906040526040518082805190602001908083835b602083106105325780518252601f199092019160209182019101610513565b5181516020939093036101000a600019018019909116921691909117905260405192018290039091209695505050505050565b60008383836040516020018084600160a060020a0316600160a060020a03166c0100000000000000000000000002815260140183815260200182805190602001908083835b602083106105c95780518252601f1990920191602091820191016105aa565b6001836020036101000a03801982511681845116808217855250505050505090500193505050506040516020818303038152906040526040518082805190602001908083835b6020831061062e5780518252601f19909201916020918201910161060f565b5181516020939093036101000a60001901801990911692169190911790526040519201829003909120979650505050505050565b60009081526020919091526040902060020154600160a060020a0316151590565b6000610786826040805190810160405280601c81526020017f19457468657265756d205369676e6564204d6573736167653a0a333200000000815250856040516020018083805190602001908083835b602083106106f25780518252601f1990920191602091820191016106d3565b51815160209384036101000a600019018019909216911617905292019384525060408051808503815293820190819052835193945092839250908401908083835b602083106107525780518252601f199092019160209182019101610733565b5181516020939093036101000a6000190180199091169216919091179052604051920182900390912093925050610f929050565b9392505050565b6000806000606080606061079f611067565b6107a98989610662565b15156107b457600080fd5b600088815260208a8152604091829020825160c0810184528154815260018083015482850152600280840154600160a060020a0316838701526003840180548751601f9482161561010002600019019091169290920492830186900486028201860190965281815291949293606086019391908301828280156108785780601f1061084d57610100808354040283529160200191610878565b820191906000526020600020905b81548152906001019060200180831161085b57829003601f168201915b505050918352505060048201805460408051602060026001851615610100026000190190941693909304601f810184900484028201840190925281815293820193929183018282801561090c5780601f106108e15761010080835404028352916020019161090c565b820191906000526020600020905b8154815290600101906020018083116108ef57829003601f168201915b505050918352505060058201805460408051602060026001851615610100026000190190941693909304601f81018490048402820184019092528181529382019392918301828280156109a05780601f10610975576101008083540402835291602001916109a0565b820191906000526020600020905b81548152906001019060200180831161098357829003601f168201915b5050509190925250508151602083015160408401516060850151608086015160a090960151939f929e50909c509a50929850965090945050505050565b6000818152600183016020908152604091829020805483518184028101840190945280845260609392830182828015610a3657602002820191906000526020600020905b81548152600190910190602001808311610a21575b5050505050905092915050565b6000610a4d611067565b60008381526020858152604091829020825160c0810184528154815260018083015482850152600280840154600160a060020a0316838701526003840180548751601f948216156101000260001901909116929092049283018690048602820186019096528181529194929360608601939190830182828015610b115780601f10610ae657610100808354040283529160200191610b11565b820191906000526020600020905b815481529060010190602001808311610af457829003601f168201915b505050918352505060048201805460408051602060026001851615610100026000190190941693909304601f8101849004840282018401909252818152938201939291830182828015610ba55780601f10610b7a57610100808354040283529160200191610ba5565b820191906000526020600020905b815481529060010190602001808311610b8857829003601f168201915b505050918352505060058201805460408051602060026001851615610100026000190190941693909304601f8101849004840282018401909252818152938201939291830182828015610c395780601f10610c0e57610100808354040283529160200191610c39565b820191906000526020600020905b815481529060010190602001808311610c1c57829003601f168201915b5050505050815250509050610c4e8484610662565b1515610c5d5760009150610d69565b60008381526020859052604081208181556001810182905560028101805473ffffffffffffffffffffffffffffffffffffffff1916905590610ca260038301826110a7565b610cb06004830160006110a7565b610cbe6005830160006110a7565b50508051600090815260018501602052604080822081517ff9eb626d000000000000000000000000000000000000000000000000000000008152600481019190915260248101869052905173__Arrays________________________________9263f9eb626d9260448082019391829003018186803b158015610d4057600080fd5b505af4158015610d54573d6000803e3d6000fd5b50505060028501805460001901905550600191505b5092915050565b6000806000610d7f878a6104b8565b9250610d8b8a84610662565b15610df25750600082815260208a815260409091206001810189905586519091610dbc9160038401918901906110ee565b508451610dd290600483019060208801906110ee565b508351610de890600583019060208701906110ee565b5060009150610f85565b60c0604051908101604052808a815260200189815260200188600160a060020a03168152602001878152602001868152602001858152508a60000160008560001916600019168152602001908152602001600020600082015181600001556020820151816001015560408201518160020160006101000a815481600160a060020a030219169083600160a060020a031602179055506060820151816003019080519060200190610ea39291906110ee565b5060808201518051610ebf9160048401916020909101906110ee565b5060a08201518051610edb9160058401916020909101906110ee565b505050600089815260018b01602052604080822081517f3004e44e000000000000000000000000000000000000000000000000000000008152600481019190915260248101869052905173__Arrays________________________________92633004e44e9260448082019391829003018186803b158015610f5c57600080fd5b505af4158015610f70573d6000803e3d6000fd5b5050505060028a018054600190810190915591505b5097509795505050505050565b60008060008084516041141515610fac576000935061105e565b50505060208201516040830151606084015160001a601b60ff82161015610fd157601b015b8060ff16601b14158015610fe957508060ff16601c14155b15610ff7576000935061105e565b60408051600080825260208083018085528a905260ff8516838501526060830187905260808301869052925160019360a0808501949193601f19840193928390039091019190865af1158015611051573d6000803e3d6000fd5b5050506020604051035193505b50505092915050565b60c06040519081016040528060008152602001600081526020016000600160a060020a031681526020016060815260200160608152602001606081525090565b50805460018160011615610100020316600290046000825580601f106110cd57506110eb565b601f0160209004906000526020600020908101906110eb919061116c565b50565b828054600181600116156101000203166002900490600052602060002090601f016020900481019282601f1061112f57805160ff191683800117855561115c565b8280016001018555821561115c579182015b8281111561115c578251825591602001919060010190611141565b5061116892915061116c565b5090565b61118691905b808211156111685760008155600101611172565b905600a165627a7a723058205d1c1df345561f32c3090e8493245fc77766df7dd70bd3e1b6d51fb77ce294900029",
  "source": "pragma solidity 0.4.24;\n\nimport \"../Arrays.sol\";\nimport \"../ECRecovery.sol\";\n\n\n/**\n * @title ClaimStore\n * @author Wu Di\n * @notice Library for managing ERC735 claims\n */\nlibrary ClaimStore {\n\n    using ECRecovery for bytes32;\n    using Arrays for Arrays.bytes32NoDup;\n\n    bytes constant internal ETH_PREFIX = \"\\x19Ethereum Signed Message:\\n32\";\n\n    struct Claim {\n        uint256 topic;\n        uint256 scheme;\n        address issuer; // msg.sender\n        bytes signature; // this.address + topic + data\n        bytes data;\n        string uri;\n    }\n\n    struct Claims {\n        mapping(bytes32 => Claim) claims;\n        mapping(uint256 => Arrays.bytes32NoDup) claimsByTopic;\n        uint numClaims;\n    }\n\n    /**\n     * @dev Generate claim ID. Especially useful in tests\n     * @param issuer Address of issuer\n     * @param topic Claim topic\n     * @return Claim ID hash\n     */\n    function getClaimId(address issuer, uint256 topic)\n        public\n        pure\n        returns (bytes32)\n    {\n        return keccak256(abi.encodePacked(issuer, topic));\n    }\n\n    /**\n     * @dev Generate claim to sign. Especially useful in tests\n     * @param subject Address about which we're making a claim\n     * @param topic Claim topic\n     * @param data Data for the claim\n     * @return Hash to be signed by claim issuer\n     */\n    function claimToSign(address subject, uint256 topic, bytes data)\n        public\n        pure\n        returns (bytes32)\n    {\n        return keccak256(abi.encodePacked(subject, topic, data));\n    }\n\n    /**\n     * @dev Recover address used to sign a claim\n     * @param toSign Hash to be signed, potentially generated with `claimToSign`\n     * @param signature Signature data i.e. signed hash\n     * @return address recovered from `signature` which signed the `toSign` hash\n     */\n    function getSignatureAddress(bytes32 toSign, bytes signature)\n        public\n        pure\n        returns (address)\n    {\n        return keccak256(abi.encodePacked(ETH_PREFIX, toSign)).recover(signature);\n    }\n\n    /**\n     * @dev Checks whether the claimId exists in the store\n     * @param _claimId Claim ID to check\n     * @return `true` if the claim is found\n     */\n    function exists(Claims storage self, bytes32 _claimId)\n        public\n        view\n        returns (bool)\n    {\n        return self.claims[_claimId].issuer != address(0);\n    }\n\n    /**\n     * @dev Requests the ADDITION or the CHANGE of a claim from an issuer.\n     *  Claims can requested to be added by anybody, including the claim holder itself (self issued).\n     * @param _topic Type of claim\n     * @param _scheme Scheme used for the signatures\n     * @param _issuer Address of issuer\n     * @param _signature The actual signature\n     * @param _data The data that was signed\n     * @param _uri The location of the claim\n     * @return `true` if the claim is a new claim, `false` if it is updated\n     */\n    function add(\n        Claims storage self,\n        uint256 _topic,\n        uint256 _scheme,\n        address _issuer,\n        bytes _signature,\n        bytes _data,\n        string _uri\n    )\n        public\n        returns (\n            bytes32 claimId,\n            bool isNew\n        )\n    {\n\n        claimId = getClaimId(_issuer, _topic);\n\n        if (exists(self, claimId)) {\n            // You can't change issuer or topic without affecting the claimId,\n            // so we don't need to update those two fields\n            Claim storage c = self.claims[claimId];\n            c.scheme = _scheme;\n            c.signature = _signature;\n            c.data = _data;\n            c.uri = _uri;\n\n            return (claimId, false);\n        } else {\n            self.claims[claimId] = Claim(\n                _topic,\n                _scheme,\n                _issuer,\n                _signature,\n                _data,\n                _uri\n            );\n            self.claimsByTopic[_topic].add(claimId);\n            self.numClaims++;\n\n            return (claimId, true);\n        }\n    }\n\n    /**\n     * @dev Removes a claim.\n     * @param _claimId Claim ID to remove\n     * @return `true` if the claim is found and removed\n     */\n    function remove(Claims storage self, bytes32 _claimId)\n        public\n        returns (bool success)\n    {\n        Claim memory c = self.claims[_claimId];\n        // Must exist\n        if (!exists(self, _claimId)) {\n            return false;\n        }\n        // Remove from mapping\n        delete self.claims[_claimId];\n        // Remove from type array\n        self.claimsByTopic[c.topic].remove(_claimId);\n        // Decrement\n        self.numClaims--;\n        return true;\n    }\n\n    /**\n     * @dev Returns a claim by ID\n     * @return (topic, scheme, issuer, signature, data, uri) tuple with claim data\n     */\n    function get(Claims storage self, bytes32 _claimId)\n        public\n        view\n        returns (\n            uint256 topic,\n            uint256 scheme,\n            address issuer,\n            bytes signature,\n            bytes data,\n            string uri\n        )\n    {\n        require(exists(self, _claimId));\n        Claim memory c = self.claims[_claimId];\n        topic = c.topic;\n        scheme = c.scheme;\n        issuer = c.issuer;\n        signature = c.signature;\n        data = c.data;\n        uri = c.uri;\n    }\n\n    /**\n     * @dev Returns claims by type\n     * @param _topic Type of claims to return\n     * @return array of claim IDs\n     */\n    function getClaimIdsByTopic(Claims storage self, uint256 _topic)\n        public\n        view\n        returns(bytes32[])\n    {\n        return self.claimsByTopic[_topic].values;\n    }\n}",
  "sourcePath": "/Users/lookrain/Documents/work/rate3-monorepo/packages/demo/identity/contracts/lib/ClaimStore.sol",
  "compiler": {
    "name": "solc",
    "version": "0.4.24+commit.e67f0147.Emscripten.clang"
  },
  "schemaVersion": "2.0.1",
  "updatedAt": "2018-09-20T03:59:34.687Z"
}