{
  "contractName": "ERC165Query",
  "abi": [
    {
      "constant": true,
      "inputs": [
        {
          "name": "_contract",
          "type": "address"
        },
        {
          "name": "_interfaceId",
          "type": "bytes4"
        }
      ],
      "name": "doesContractImplementInterface",
      "outputs": [
        {
          "name": "",
          "type": "bool"
        }
      ],
      "payable": false,
      "stateMutability": "view",
      "type": "function"
    },
    {
      "constant": true,
      "inputs": [
        {
          "name": "_contract",
          "type": "address"
        },
        {
          "name": "_interfaceId",
          "type": "bytes4"
        }
      ],
      "name": "noThrowCall",
      "outputs": [
        {
          "name": "success",
          "type": "uint256"
        },
        {
          "name": "result",
          "type": "uint256"
        }
      ],
      "payable": false,
      "stateMutability": "view",
      "type": "function"
    }
  ],
  "bytecode": "0x61025e610030600b82828239805160001a6073146000811461002057610022565bfe5b5030600052607381538281f30073000000000000000000000000000000000000000030146080604052600436106100625763ffffffff7c0100000000000000000000000000000000000000000000000000000000600035041663e9c543848114610067578063f86cd33d146100be575b600080fd5b6100aa73ffffffffffffffffffffffffffffffffffffffff600435167bffffffffffffffffffffffffffffffffffffffffffffffffffffffff196024351661011a565b604080519115158252519081900360200190f35b61010173ffffffffffffffffffffffffffffffffffffffff600435167bffffffffffffffffffffffffffffffffffffffffffffffffffffffff19602435166101e6565b6040805192835260208301919091528051918290030190f35b60008080610148857f01ffc9a7000000000000000000000000000000000000000000000000000000006101e6565b9092509050811580610158575080155b1561016657600092506101de565b61018d857bffffffffffffffffffffffffffffffffffffffffffffffffffffffff196101e6565b909250905081158061019e57508015155b156101ac57600092506101de565b6101b685856101e6565b90925090506001821480156101cb5750806001145b156101d957600192506101de565b600092505b505092915050565b6040517f01ffc9a70000000000000000000000000000000000000000000000000000000080825260048201839052600091829190602081818189617530fa9051909690955093505050505600a165627a7a72305820872ead4c045046b7d38dd92d8be799f5c4f5e2df971eb589e50a470f9b26a48d0029",
  "source": "pragma solidity 0.4.24;\n\n\n/**\n * @title ERC165\n * @author @fulldecent and @jbaylina\n * @notice A library that detects which interfaces other contracts implement\n * @dev Based on https://github.com/ethereum/EIPs/pull/881\n */\nlibrary ERC165Query {\n    bytes4 constant internal INVALID_ID = 0xffffffff;\n    bytes4 constant internal ERC165_ID = 0x01ffc9a7;\n\n    /**\n     * @dev Checks if a given contract address implement a given interface using\n     *  pseudo-introspection (ERC165)\n     * @param _contract Smart contract to check\n     * @param _interfaceId Interface to check\n     * @return `true` if the contract implements both ERC165 and `_interfaceId`\n     */\n    function doesContractImplementInterface(address _contract, bytes4 _interfaceId)\n        public\n        view\n        returns (bool)\n    {\n        uint256 success;\n        uint256 result;\n\n        (success, result) = noThrowCall(_contract, ERC165_ID);\n        if ((success == 0) || (result == 0)) {\n            return false;\n        }\n\n        (success, result) = noThrowCall(_contract, INVALID_ID);\n        if ((success == 0) || (result != 0)) {\n            return false;\n        }\n\n        (success, result) = noThrowCall(_contract, _interfaceId);\n        if ((success == 1) && (result == 1)) {\n            return true;\n        }\n        return false;\n    }\n\n    /**\n     * @dev `Calls supportsInterface(_interfaceId)` on a contract without\n     *  throwing an error\n     * @param _contract Smart contract to call\n     * @param _interfaceId Interface to call\n     * @return `success` is `true` if the call was successful; `result` is the\n     *  result of the call\n     */\n    function noThrowCall(address _contract, bytes4 _interfaceId)\n        public\n        view\n        returns (uint256 success, uint256 result)\n    {\n        bytes4 erc165ID = ERC165_ID;\n\n        // solhint-disable-next-line no-inline-assembly\n        assembly {\n            let x := mload(0x40)               // Find empty storage location using \"free memory pointer\"\n            mstore(x, erc165ID)                // Place signature at begining of empty storage\n            mstore(add(x, 0x04), _interfaceId) // Place first argument directly next to signature\n\n            success := staticcall(\n                30000,         // 30k gas\n                _contract,     // To addr\n                x,             // Inputs are stored at location x\n                0x20,          // Inputs are 32 bytes long\n                x,             // Store output over input (saves space)\n                0x20)          // Outputs are 32 bytes long\n\n            result := mload(x) // Load the result\n        }\n    }\n}",
  "sourcePath": "/Users/lookrain/Documents/work/rate3-monorepo/packages/demo/identity/contracts/lib/ERC165Query.sol",
  "compiler": {
    "name": "solc",
    "version": "0.4.24+commit.e67f0147.Emscripten.clang"
  },
  "schemaVersion": "2.0.1",
  "updatedAt": "2018-09-20T03:59:34.678Z"
}