{
  "contractName": "ExecutionStore",
  "abi": [
    {
      "anonymous": false,
      "inputs": [
        {
          "indexed": true,
          "name": "key",
          "type": "bytes32"
        },
        {
          "indexed": true,
          "name": "purpose",
          "type": "uint256"
        },
        {
          "indexed": true,
          "name": "keyType",
          "type": "uint256"
        }
      ],
      "name": "KeyAdded",
      "type": "event"
    },
    {
      "anonymous": false,
      "inputs": [
        {
          "indexed": true,
          "name": "key",
          "type": "bytes32"
        },
        {
          "indexed": true,
          "name": "purpose",
          "type": "uint256"
        },
        {
          "indexed": true,
          "name": "keyType",
          "type": "uint256"
        }
      ],
      "name": "KeyRemoved",
      "type": "event"
    },
    {
      "anonymous": false,
      "inputs": [
        {
          "indexed": true,
          "name": "executionId",
          "type": "uint256"
        },
        {
          "indexed": true,
          "name": "to",
          "type": "address"
        },
        {
          "indexed": true,
          "name": "value",
          "type": "uint256"
        },
        {
          "indexed": false,
          "name": "data",
          "type": "bytes"
        }
      ],
      "name": "ExecutionRequested",
      "type": "event"
    },
    {
      "anonymous": false,
      "inputs": [
        {
          "indexed": true,
          "name": "executionId",
          "type": "uint256"
        },
        {
          "indexed": true,
          "name": "to",
          "type": "address"
        },
        {
          "indexed": true,
          "name": "value",
          "type": "uint256"
        },
        {
          "indexed": false,
          "name": "data",
          "type": "bytes"
        }
      ],
      "name": "Executed",
      "type": "event"
    },
    {
      "anonymous": false,
      "inputs": [
        {
          "indexed": true,
          "name": "executionId",
          "type": "uint256"
        },
        {
          "indexed": true,
          "name": "to",
          "type": "address"
        },
        {
          "indexed": true,
          "name": "value",
          "type": "uint256"
        },
        {
          "indexed": false,
          "name": "data",
          "type": "bytes"
        }
      ],
      "name": "ExecutionFailed",
      "type": "event"
    },
    {
      "anonymous": false,
      "inputs": [
        {
          "indexed": true,
          "name": "executionId",
          "type": "uint256"
        },
        {
          "indexed": false,
          "name": "approved",
          "type": "bool"
        }
      ],
      "name": "Approved",
      "type": "event"
    },
    {
      "constant": false,
      "inputs": [
        {
          "name": "self",
          "type": "ExecutionStore.Execution storage"
        },
        {
          "name": "addr",
          "type": "address"
        }
      ],
      "name": "addApproval",
      "outputs": [
        {
          "name": "",
          "type": "bool"
        }
      ],
      "payable": false,
      "stateMutability": "nonpayable",
      "type": "function"
    },
    {
      "constant": false,
      "inputs": [
        {
          "name": "self",
          "type": "ExecutionStore.Execution storage"
        },
        {
          "name": "addr",
          "type": "address"
        }
      ],
      "name": "removeApproval",
      "outputs": [
        {
          "name": "",
          "type": "bool"
        }
      ],
      "payable": false,
      "stateMutability": "nonpayable",
      "type": "function"
    },
    {
      "constant": false,
      "inputs": [
        {
          "name": "self",
          "type": "ExecutionStore.Executions storage"
        },
        {
          "name": "key",
          "type": "bytes32"
        },
        {
          "name": "purpose",
          "type": "uint256"
        }
      ],
      "name": "removeKey",
      "outputs": [
        {
          "name": "",
          "type": "bool"
        }
      ],
      "payable": false,
      "stateMutability": "nonpayable",
      "type": "function"
    },
    {
      "constant": false,
      "inputs": [
        {
          "name": "self",
          "type": "ExecutionStore.Executions storage"
        },
        {
          "name": "_key",
          "type": "bytes32"
        },
        {
          "name": "_purpose",
          "type": "uint256"
        },
        {
          "name": "_keyType",
          "type": "uint256"
        }
      ],
      "name": "addKey",
      "outputs": [
        {
          "name": "success",
          "type": "bool"
        }
      ],
      "payable": false,
      "stateMutability": "nonpayable",
      "type": "function"
    },
    {
      "constant": false,
      "inputs": [
        {
          "name": "self",
          "type": "ExecutionStore.Executions storage"
        },
        {
          "name": "_to",
          "type": "address"
        },
        {
          "name": "_value",
          "type": "uint256"
        },
        {
          "name": "_data",
          "type": "bytes"
        }
      ],
      "name": "add",
      "outputs": [
        {
          "name": "executionId",
          "type": "uint256"
        }
      ],
      "payable": false,
      "stateMutability": "nonpayable",
      "type": "function"
    },
    {
      "constant": false,
      "inputs": [
        {
          "name": "self",
          "type": "ExecutionStore.Executions storage"
        },
        {
          "name": "_id",
          "type": "uint256"
        },
        {
          "name": "_approve",
          "type": "bool"
        }
      ],
      "name": "approve",
      "outputs": [
        {
          "name": "success",
          "type": "bool"
        }
      ],
      "payable": false,
      "stateMutability": "nonpayable",
      "type": "function"
    },
    {
      "constant": false,
      "inputs": [
        {
          "name": "self",
          "type": "ExecutionStore.Executions storage"
        },
        {
          "name": "threshold",
          "type": "uint256"
        }
      ],
      "name": "changeManagementThreshold",
      "outputs": [],
      "payable": false,
      "stateMutability": "nonpayable",
      "type": "function"
    },
    {
      "constant": false,
      "inputs": [
        {
          "name": "self",
          "type": "ExecutionStore.Executions storage"
        },
        {
          "name": "threshold",
          "type": "uint256"
        }
      ],
      "name": "changeActionThreshold",
      "outputs": [],
      "payable": false,
      "stateMutability": "nonpayable",
      "type": "function"
    }
  ],
  "bytecode": "0x611a94610030600b82828239805160001a6073146000811461002057610022565bfe5b5030600052607381538281f300730000000000000000000000000000000000000000301460806040526004361061008a5763ffffffff60e060020a600035041662d5183a811461008f578063166b5fb7146100c757806316ae2e41146100e55780632bd1e6561461010257806375cbc07b1461011d5780639d1e16951461019e578063c0adc0b2146101be578063db90106e146101df575b600080fd5b81801561009b57600080fd5b506100b3600435600160a060020a0360243516610203565b604080519115158252519081900360200190f35b8180156100d357600080fd5b506100b36004356024356044356103e0565b8180156100f157600080fd5b50610100600435602435610788565b005b81801561010e57600080fd5b50610100600435602435610834565b81801561012957600080fd5b50604080516020601f60643560048181013592830184900484028501840190955281845261018c94803594600160a060020a0360248035919091169560443595369560849493019181908401838280828437509497506108e09650505050505050565b60408051918252519081900360200190f35b8180156101aa57600080fd5b506100b36004356024356044351515610f0a565b8180156101ca57600080fd5b506100b36004356024356044356064356113c6565b8180156101eb57600080fd5b506100b3600435600160a060020a03602435166114b6565b60008073__KeyStore______________________________6363f14c3c846040518263ffffffff1660e060020a0281526004018082600160a060020a0316600160a060020a0316815260200191505060206040518083038186803b15801561026a57600080fd5b505af415801561027e573d6000803e3d6000fd5b505050506040513d602081101561029457600080fd5b5051604080517f79c7d48000000000000000000000000000000000000000000000000000000000815260038701600482015260248101839052905191925073__Arrays________________________________916379c7d48091604480820192602092909190829003018186803b15801561030e57600080fd5b505af4158015610322573d6000803e3d6000fd5b505050506040513d602081101561033857600080fd5b50511561034857600091506103d9565b604080517f3004e44e00000000000000000000000000000000000000000000000000000000815260038601600482015260248101839052905173__Arrays________________________________91633004e44e916044808301926000929190829003018186803b1580156103bc57600080fd5b505af41580156103d0573d6000803e3d6000fd5b50505050600191505b5092915050565b604080517f41c776120000000000000000000000000000000000000000000000000000000081526004810185905260248101849052604481018390529051600091829173__KeyStore______________________________916341c77612916064808301926020929190829003018186803b15801561045e57600080fd5b505af4158015610472573d6000803e3d6000fd5b505050506040513d602081101561048857600080fd5b505115156104995760009150610780565b84546040805160e260020a630162cc5b0281529051600160a060020a039092169163058b316c916004808201926020929091908290030181600087803b1580156104e257600080fd5b505af11580156104f6573d6000803e3d6000fd5b505050506040513d602081101561050c57600080fd5b50518314156105a1576004850154600084815260028701602052604090205460001901101561059c57604080517f08c379a000000000000000000000000000000000000000000000000000000000815260206004820152601e60248201527f4e756d626572206f66206b6579732062656c6f77207468726573686f6c640000604482015290519081900360640190fd5b6106a4565b84546040805160e260020a631d7956630281529051600160a060020a03909216916375e5598c916004808201926020929091908290030181600087803b1580156105ea57600080fd5b505af11580156105fe573d6000803e3d6000fd5b505050506040513d602081101561061457600080fd5b50518314156106a457600585015460008481526002870160205260409020546000190110156106a457604080517f08c379a000000000000000000000000000000000000000000000000000000000815260206004820152601e60248201527f4e756d626572206f66206b6579732062656c6f77207468726573686f6c640000604482015290519081900360640190fd5b604080517f7975b5c3000000000000000000000000000000000000000000000000000000008152600481018790526024810186905260448101859052905173__KeyStore______________________________91637975b5c3916064808301926020929190829003018186803b15801561071d57600080fd5b505af4158015610731573d6000803e3d6000fd5b505050506040513d602081101561074757600080fd5b50516040519091508190849086907f585a4aef50f8267a92b32412b331b20f7f8b96f2245b253b9cc50dcc621d339790600090a4600191505b509392505050565b600080821161079657600080fd5b82546040805160e260020a630162cc5b0281529051600160a060020a039092169163058b316c916004808201926020929091908290030181600087803b1580156107df57600080fd5b505af11580156107f3573d6000803e3d6000fd5b505050506040513d602081101561080957600080fd5b5051600081815260028501602052604090205490915082111561082b57600080fd5b50600490910155565b600080821161084257600080fd5b82546040805160e260020a631d7956630281529051600160a060020a03909216916375e5598c916004808201926020929091908290030181600087803b15801561088b57600080fd5b505af115801561089f573d6000803e3d6000fd5b505050506040513d60208110156108b557600080fd5b505160008181526002850160205260409020549091508211156108d757600080fd5b50600590910155565b6000806000806108ee6118e2565b60068901805460010190819055600081815260078b01602090815260409182902082517f63f14c3c0000000000000000000000000000000000000000000000000000000081523360048201529251939850600301965073__KeyStore______________________________926363f14c3c926024808201939291829003018186803b15801561097c57600080fd5b505af4158015610990573d6000803e3d6000fd5b505050506040513d60208110156109a657600080fd5b50519150600160a060020a038816301415610b705760048901549250333014156109cf57610b6b565b88546040805160e260020a630162cc5b028152905173__KeyStore______________________________926341c77612928d928792600160a060020a03169163058b316c9160048083019260209291908290030181600087803b158015610a3557600080fd5b505af1158015610a49573d6000803e3d6000fd5b505050506040513d6020811015610a5f57600080fd5b50516040805160e060020a63ffffffff8716028152600481019490945260248401929092526044830152516064808301926020929190829003018186803b158015610aa957600080fd5b505af4158015610abd573d6000803e3d6000fd5b505050506040513d6020811015610ad357600080fd5b50511515610ae057600080fd5b604080517f3004e44e0000000000000000000000000000000000000000000000000000000081526004810186905260248101849052905173__Arrays________________________________91633004e44e916044808301926000929190829003018186803b158015610b5257600080fd5b505af4158015610b66573d6000803e3d6000fd5b505050505b610d35565b600160a060020a0388161515610b8557600080fd5b6005890154925033301415610b9957610d35565b88546040805160e260020a631d795663028152905173__KeyStore______________________________926341c77612928d928792600160a060020a0316916375e5598c9160048083019260209291908290030181600087803b158015610bff57600080fd5b505af1158015610c13573d6000803e3d6000fd5b505050506040513d6020811015610c2957600080fd5b50516040805160e060020a63ffffffff8716028152600481019490945260248401929092526044830152516064808301926020929190829003018186803b158015610c7357600080fd5b505af4158015610c87573d6000803e3d6000fd5b505050506040513d6020811015610c9d57600080fd5b50511515610caa57600080fd5b604080517f3004e44e0000000000000000000000000000000000000000000000000000000081526004810186905260248101849052905173__Arrays________________________________91633004e44e916044808301926000929190829003018186803b158015610d1c57600080fd5b505af4158015610d30573d6000803e3d6000fd5b505050505b8688600160a060020a0316867f8afcfabcb00e47a53a8fc3e9f23ff47ee1926194bb1350dd007c50b412a6cee8896040518080602001828103825283818151815260200191508051906020019080838360005b83811015610da0578181015183820152602001610d88565b50505050905090810190601f168015610dcd5780820380516001836020036101000a031916815260200191505b509250505060405180910390a460408051608081018252600160a060020a038a16815260208082018a9052818301899052825187548083028201850185529181018281529293606085019391928992849290918491840182828015610e5257602002820191906000526020600020905b81548152600190910190602001808311610e3d575b50505091909252505050905284549091508311610e7a57610e74898683611670565b50610efe565b600085815260078a0160209081526040918290208351815473ffffffffffffffffffffffffffffffffffffffff1916600160a060020a03909116178155838201516001820155918301518051849392610eda926002850192910190611919565b506060820151805180516003840191610ef891839160200190611997565b50505050505b50505050949350505050565b6000808080851515610f1b57600080fd5b600086815260078801602052604090208054909350600160a060020a03161515610f4457600080fd5b604080517f63f14c3c000000000000000000000000000000000000000000000000000000008152336004820152905173__KeyStore______________________________916363f14c3c916024808301926020929190829003018186803b158015610fae57600080fd5b505af4158015610fc2573d6000803e3d6000fd5b505050506040513d6020811015610fd857600080fd5b50518354909150600160a060020a031630141561110c5786546040805160e260020a630162cc5b028152905173__KeyStore______________________________926341c77612928b928692600160a060020a03169163058b316c9160048083019260209291908290030181600087803b15801561105557600080fd5b505af1158015611069573d6000803e3d6000fd5b505050506040513d602081101561107f57600080fd5b50516040805160e060020a63ffffffff8716028152600481019490945260248401929092526044830152516064808301926020929190829003018186803b1580156110c957600080fd5b505af41580156110dd573d6000803e3d6000fd5b505050506040513d60208110156110f357600080fd5b5051151561110057600080fd5b86600401549150611225565b86546040805160e260020a631d795663028152905173__KeyStore______________________________926341c77612928b928692600160a060020a0316916375e5598c9160048083019260209291908290030181600087803b15801561117257600080fd5b505af1158015611186573d6000803e3d6000fd5b505050506040513d602081101561119c57600080fd5b50516040805160e060020a63ffffffff8716028152600481019490945260248401929092526044830152516064808301926020929190829003018186803b1580156111e657600080fd5b505af41580156111fa573d6000803e3d6000fd5b505050506040513d602081101561121057600080fd5b5051151561121d57600080fd5b866005015491505b604080518615158152905187917fb3932da477fe5d6c8ff2eafef050c0f3a1af18fc07121001482600f36f3715d8919081900360200190a28415156112755761126e83336114b6565b93506113bc565b61127f8333610203565b50600383015482116113b757604080516080810182528454600160a060020a031681526001808601546020808401919091526002808801805486516101009582161595909502600019011691909104601f8101839004830284018301865280845261126e958d958d9590948b9492860193919291908301828280156113455780601f1061131a57610100808354040283529160200191611345565b820191906000526020600020905b81548152906001019060200180831161132857829003601f168201915b5050509183525050604080516003840180546020818102840185018552838101828152950194929391928492909184918401828280156113a557602002820191906000526020600020905b81548152600190910190602001808311611390575b50505050508152505081525050611670565b600193505b5050509392505050565b604080517f473cee2100000000000000000000000000000000000000000000000000000000815260048101869052602481018590526044810184905260648101839052905160009173__KeyStore______________________________9163473cee2191608480820192602092909190829003018186803b15801561144a57600080fd5b505af415801561145e573d6000803e3d6000fd5b505050506040513d602081101561147457600080fd5b5051905080156114ae576040518290849086907f480000bb1edad8ca1470381cc334b1917fbd51c6531f3a623ea8e0ec7e38a6e990600090a45b949350505050565b60008073__KeyStore______________________________6363f14c3c846040518263ffffffff1660e060020a0281526004018082600160a060020a0316600160a060020a0316815260200191505060206040518083038186803b15801561151d57600080fd5b505af4158015611531573d6000803e3d6000fd5b505050506040513d602081101561154757600080fd5b5051604080517f79c7d48000000000000000000000000000000000000000000000000000000000815260038701600482015260248101839052905191925073__Arrays________________________________916379c7d48091604480820192602092909190829003018186803b1580156115c157600080fd5b505af41580156115d5573d6000803e3d6000fd5b505050506040513d60208110156115eb57600080fd5b505115156115fc57600091506103d9565b604080517ff9eb626d00000000000000000000000000000000000000000000000000000000815260038601600482015260248101839052905173__Arrays________________________________9163f9eb626d916044808301926000929190829003018186803b1580156103bc57600080fd5b80516000908190600160a060020a0316151561168b57600080fd5b8260000151600160a060020a03168360200151846040015160405180828051906020019080838360005b838110156116cd5781810151838201526020016116b5565b50505050905090810190601f1680156116fa5780820380516001836020036101000a031916815260200191505b5091505060006040518083038185875af19250505090508015156117d25782602001518360000151600160a060020a0316857fe10c49d9f7c71da23262367013434763cfdb2332267641728d25cd712c5c6a6886604001516040518080602001828103825283818151815260200191508051906020019080838360005b8381101561178f578181015183820152602001611777565b50505050905090810190601f1680156117bc5780820380516001836020036101000a031916815260200191505b509250505060405180910390a460009150610780565b82602001518360000151600160a060020a0316857f1f920dbda597d7bf95035464170fa58d0a4b57f13a1c315ace6793b9f63688b886604001516040518080602001828103825283818151815260200191508051906020019080838360005b83811015611849578181015183820152602001611831565b50505050905090810190601f1680156118765780820380516001836020036101000a031916815260200191505b509250505060405180910390a460008481526007860160205260408120805473ffffffffffffffffffffffffffffffffffffffff1916815560018101829055906118c360028301826119d4565b6003820160006118d38282611a1b565b50600198975050505050505050565b6080604051908101604052806000600160a060020a031681526020016000815260200160608152602001611914611a39565b905290565b828054600181600116156101000203166002900490600052602060002090601f016020900481019282601f1061195a57805160ff1916838001178555611987565b82800160010185558215611987579182015b8281111561198757825182559160200191906001019061196c565b50611993929150611a4b565b5090565b828054828255906000526020600020908101928215611987579160200282015b8281111561198757825182556020909201916001909101906119b7565b50805460018160011615610100020316600290046000825580601f106119fa5750611a18565b601f016020900490600052602060002090810190611a189190611a4b565b50565b5080546000825590600052602060002090810190611a189190611a4b565b60408051602081019091526060815290565b611a6591905b808211156119935760008155600101611a51565b905600a165627a7a72305820e7dbdcfcf89d166e894678cbcdb69ddaed7d19bf1a43bef97ceaa257758d737f0029",
  "source": "pragma solidity 0.4.24;\n\nimport \"../Arrays.sol\";\nimport \"./KeyStore.sol\";\n\n\n/**\n * @title ExecutionStore\n * @author Wu Di\n * @notice Library for managing Executions\n */\nlibrary ExecutionStore {\n\n    event KeyAdded(\n        bytes32 indexed key,\n        uint256 indexed purpose,\n        uint256 indexed keyType\n    );\n\n    event KeyRemoved(\n        bytes32 indexed key,\n        uint256 indexed purpose,\n        uint256 indexed keyType\n    );\n\n    event ExecutionRequested(\n        uint256 indexed executionId,\n        address indexed to,\n        uint256 indexed value,\n        bytes data\n    );\n\n    event Executed(\n        uint256 indexed executionId,\n        address indexed to,\n        uint256 indexed value,\n        bytes data\n    );\n\n    event ExecutionFailed(\n        uint256 indexed executionId,\n        address indexed to,\n        uint256 indexed value,\n        bytes data\n    );\n\n    event Approved(uint256 indexed executionId, bool approved);\n\n    using Arrays for Arrays.bytes32NoDup;\n    using KeyStore for KeyStore.Keys;\n    using KeyStore for KeyStore.Key;\n\n    struct Execution {\n        address to;\n        uint256 value;\n        bytes data;\n        Arrays.bytes32NoDup approvals;\n    }\n\n    /**\n     * @dev Adds an address to list of approvals\n     * @param addr Address to add\n     * @return `true` if added\n     */\n    function addApproval(Execution storage self, address addr)\n        public\n        returns (bool)\n    {\n        bytes32 approvalAddr = KeyStore.addrToKey(addr);\n        if (self.approvals.contains(approvalAddr)) {\n            return false;\n        }\n        self.approvals.add(approvalAddr);\n        return true;\n    }\n\n    /**\n     * @dev Removes an address to list of approvals\n     * @param addr Address to remove\n     * @return `true` if removed\n     */\n    function removeApproval(Execution storage self, address addr)\n        public\n        returns (bool)\n    {\n        bytes32 approvalAddr = KeyStore.addrToKey(addr);\n        if (!self.approvals.contains(approvalAddr)) {\n            return false;\n        }\n        self.approvals.remove(approvalAddr);\n        return true;\n    }\n\n    struct Executions {\n        KeyStore.Keys allKeys;\n        uint256 managementThreshold;\n        uint256 actionThreshold;\n        uint256 nonce;\n        mapping (uint256 => Execution) execution;\n    }\n\n     /**\n     * @dev Remove Key\n     * @param key Key bytes to remove\n     * @param purpose Purpose to remove\n     * @return Key type of the key that was removed\n     */\n    function removeKey(Executions storage self, bytes32 key, uint256 purpose)\n        public\n        returns (bool)\n    {\n        if (!self.allKeys.find(key, purpose)) {\n            return false;\n        }\n        if (purpose == self.allKeys.enums.MANAGEMENT_KEY()) {\n            require(\n                self.allKeys.keysByPurpose[purpose].values.length - 1 >= self.managementThreshold,\n                \"Number of keys below threshold\"\n            );\n        } else if (purpose == self.allKeys.enums.ACTION_KEY()) {\n            require(\n                self.allKeys.keysByPurpose[purpose].values.length - 1 >= self.actionThreshold,\n                \"Number of keys below threshold\"\n            );\n        }\n        uint256 keyType = self.allKeys.remove(key, purpose);\n        emit KeyRemoved(key, purpose, keyType);\n        return true;\n    }\n\n    /**\n     * @dev Add key data to the identity if key + purpose tuple doesn't already exist\n     * @param _key Key bytes to add\n     * @param _purpose Purpose to add\n     * @param _keyType Key type to add\n     * @return `true` if key was added, `false` if it already exists\n     */\n    function addKey(Executions storage self, bytes32 _key, uint256 _purpose, uint256 _keyType)\n        public\n        returns (bool success)\n    {\n        success = self.allKeys.add(_key, _purpose, _keyType);\n        if (success) {\n            emit KeyAdded(_key, _purpose, _keyType);\n        }\n    }\n\n    /**\n     * @dev Generate a unique ID for an execution request\n     * @param _to address being called (msg.sender)\n     * @param _value ether being sent (msg.value)\n     * @param _data ABI encoded call data (msg.data)\n     */\n    function add(Executions storage self, address _to, uint256 _value, bytes _data)\n        public\n        returns (uint256 executionId)\n    {\n        executionId = ++self.nonce;\n        Arrays.bytes32NoDup storage approvals = self.execution[executionId].approvals;\n\n        uint threshold;\n        bytes32 approvalAddr = KeyStore.addrToKey(msg.sender);\n        if (_to == address(this)) {\n            threshold = self.managementThreshold;\n            if (msg.sender == address(this)) { // solhint-disable-line no-empty-blocks\n                // Contract calling itself to act on itself\n            } else {\n                // Only management keys can operate on this contract\n                require(\n                    self.allKeys.find(\n                        approvalAddr,\n                        self.allKeys.enums.MANAGEMENT_KEY()\n                    )\n                );\n                approvals.add(approvalAddr);\n            }\n        } else {\n            require(_to != address(0));\n            threshold = self.actionThreshold;\n            if (msg.sender == address(this)) { // solhint-disable-line no-empty-blocks\n                // Contract calling itself to act on other address\n            } else {\n                // Action keys can operate on other addresses\n                require(\n                    self.allKeys.find(\n                        approvalAddr,\n                        self.allKeys.enums.ACTION_KEY()\n                    )\n                );\n                approvals.add(approvalAddr);\n            }\n        }\n\n        emit ExecutionRequested(executionId, _to, _value, _data);\n\n        Execution memory e = Execution(_to, _value, _data, approvals);\n        if (approvals.values.length >= threshold) {\n            _execute(self, executionId, e);\n        } else {\n            self.execution[executionId] = e;\n        }\n    }\n\n    /**\n     * @dev Approves an execution.\n     *  Approving multiple times will work i.e. used to trigger an execution if\n     *  it failed the first time.\n     *  Disapproving multiple times will work i.e. not do anything.\n     *  The approval could potentially trigger an execution (if the threshold is met).\n     * @param _id Execution ID\n     * @param _approve `true` if it's an approval, `false` if it's a disapproval\n     * @return `false` if it's a disapproval and there's no previous approval from the sender OR\n     *  if it's an approval that triggered a failed execution. `true` if it's a disapproval that\n     *  undos a previous approval from the sender OR if it's an approval that succeeded OR\n     *  if it's an approval that triggered a successful execution\n     */\n    function approve(Executions storage self, uint256 _id, bool _approve)\n        public\n        returns (bool success)\n    {\n        require(_id != 0);\n        Execution storage e = self.execution[_id];\n        // Must exist\n        require(e.to != address(0));\n\n        uint threshold;\n        bytes32 approvalAddr = KeyStore.addrToKey(msg.sender);\n        // Must be approved with the right key\n        if (e.to == address(this)) {\n            require(\n                self.allKeys.find(\n                    approvalAddr,\n                    self.allKeys.enums.MANAGEMENT_KEY()\n                )\n            );\n            threshold = self.managementThreshold;\n        } else {\n            require(\n                self.allKeys.find(\n                    approvalAddr,\n                    self.allKeys.enums.ACTION_KEY()\n                )\n            );\n            threshold = self.actionThreshold;\n        }\n\n        emit Approved(_id, _approve);\n\n        if (!_approve) {\n            return removeApproval(e, msg.sender);\n        } else {\n            addApproval(e, msg.sender);\n            // Do we need more approvals?\n            if (e.approvals.values.length >= threshold) {\n                return _execute(self, _id, e);\n            }\n            return true;\n        }\n    }\n\n    /**\n     * @dev Change multi-sig threshold for MANAGEMENT_KEY\n     * @param threshold New threshold to change it to (will throw if 0 or\n     *  larger than available keys)\n     */\n    function changeManagementThreshold(Executions storage self, uint threshold)\n        public\n    {\n        require(threshold > 0);\n        // Don't lock yourself out\n        uint256 _purpose = self.allKeys.enums.MANAGEMENT_KEY();\n        require(threshold <= self.allKeys.keysByPurpose[_purpose].values.length);\n        self.managementThreshold = threshold;\n    }\n\n    /**\n     * @dev Change multi-sig threshold for ACTION_KEY\n     * @param threshold New threshold to change it to (will throw if 0 or\n     *  larger than available keys)\n     */\n    function changeActionThreshold(Executions storage self, uint threshold)\n        public\n    {\n        require(threshold > 0);\n        // Don't lock yourself out\n        uint256 _purpose = self.allKeys.enums.ACTION_KEY();\n        require(threshold <= self.allKeys.keysByPurpose[_purpose].values.length);\n        self.actionThreshold = threshold;\n    }\n\n    /**\n     * @dev Executes an action on other contracts, or itself, or a transfer of ether\n     * @param _id Execution ID\n     * @param e Execution data\n     * @return `true` if the execution succeeded, `false` otherwise\n     */\n    function _execute(Executions storage self, uint256 _id, Execution e)\n        private\n        returns (bool)\n    {\n        // Must exist\n        require(e.to != 0);\n        // solhint-disable-next-line avoid-call-value\n        bool success = e.to.call.value(e.value)(e.data);\n        if (!success) {\n            emit ExecutionFailed(_id, e.to, e.value, e.data);\n            return false;\n        }\n        emit Executed(_id, e.to, e.value, e.data);\n        delete self.execution[_id];\n        return true;\n    }\n}\n",
  "sourcePath": "/Users/lookrain/Documents/work/rate3-monorepo/packages/demo/identity/contracts/lib/ExecutionStore.sol",
  "compiler": {
    "name": "solc",
    "version": "0.4.24+commit.e67f0147.Emscripten.clang"
  },
  "schemaVersion": "2.0.1",
  "updatedAt": "2018-09-20T03:59:34.695Z"
}