{
  "contractName": "IdentityRegistry",
  "abi": [
    {
      "constant": true,
      "inputs": [
        {
          "name": "",
          "type": "address"
        }
      ],
      "name": "identities",
      "outputs": [
        {
          "name": "",
          "type": "address"
        }
      ],
      "payable": false,
      "stateMutability": "view",
      "type": "function"
    },
    {
      "inputs": [
        {
          "name": "_keyEnums",
          "type": "address"
        }
      ],
      "payable": false,
      "stateMutability": "nonpayable",
      "type": "constructor"
    },
    {
      "anonymous": false,
      "inputs": [
        {
          "indexed": false,
          "name": "senderAddress",
          "type": "address"
        },
        {
          "indexed": false,
          "name": "identityAddress",
          "type": "address"
        }
      ],
      "name": "NewIdentity",
      "type": "event"
    },
    {
      "constant": false,
      "inputs": [],
      "name": "createIdentity",
      "outputs": [
        {
          "name": "",
          "type": "address"
        }
      ],
      "payable": false,
      "stateMutability": "nonpayable",
      "type": "function"
    },
    {
      "constant": true,
      "inputs": [
        {
          "name": "addr",
          "type": "address"
        }
      ],
      "name": "hasIdentity",
      "outputs": [
        {
          "name": "",
          "type": "bool"
        }
      ],
      "payable": false,
      "stateMutability": "view",
      "type": "function"
    }
  ],
  "bytecode": "0x608060405234801561001057600080fd5b50604051602080613632833981016040525160008054600160a060020a03909216600160a060020a03199092169190911790556135e0806100526000396000f3006080604052600436106100565763ffffffff7c0100000000000000000000000000000000000000000000000000000000600035041663237f1a21811461005b57806359d21ad914610090578063f653b81e146100c1575b600080fd5b34801561006757600080fd5b5061007c600160a060020a03600435166100e2565b604080519115158252519081900360200190f35b34801561009c57600080fd5b506100a5610102565b60408051600160a060020a039092168252519081900360200190f35b3480156100cd57600080fd5b506100a5600160a060020a036004351661024b565b600160a060020a0390811660009081526001602052604090205416151590565b336000908152600160205260408120548190600160a060020a03161561018957604080517f08c379a000000000000000000000000000000000000000000000000000000000815260206004820152600f60248201527f4964656e74697479206578697374730000000000000000000000000000000000604482015290519081900360640190fd5b6000543390600160a060020a031661019f610266565b600160a060020a03928316815291166020820152604080519182900301906000f0801580156101d2573d6000803e3d6000fd5b5033600081815260016020908152604091829020805473ffffffffffffffffffffffffffffffffffffffff1916600160a060020a03861690811790915582519384529083015280519293507f4bbb10c11c6c8c35689f097fa303b69ba45da8472d34886663ebbf3b1a42ce2892918290030190a1919050565b600160205260009081526040902054600160a060020a031681565b60405161333e8061027783390190560060806040526009805460ff191690553480156200001b57600080fd5b506040516040806200333e8339810160405280516020909101516000600181806200004e640100000000620007ec810204565b7fffffffff0000000000000000000000000000000000000000000000000000000016815260208101919091526040016000908120805460ff19169215159290921790915560019080620000a964010000000062000810810204565b7fffffffff0000000000000000000000000000000000000000000000000000000016815260208101919091526040016000908120805460ff191692151592909217909155600190806200010464010000000062000834810204565b7fffffffff000000000000000000000000000000000000000000000000000000001681526020808201929092526040908101600020805460ff19169315159390931790925560018054600160a060020a031916600160a060020a03868116919091178255600582905560069190915582517f63f14c3c0000000000000000000000000000000000000000000000000000000081529086166004820152915173__KeyStore______________________________926363f14c3c926024808301939192829003018186803b158015620001db57600080fd5b505af4158015620001f0573d6000803e3d6000fd5b505050506040513d60208110156200020757600080fd5b5051604080517f058b316c000000000000000000000000000000000000000000000000000000008152905191925073__ExecutionStore________________________9163c0adc0b2916001918591600160a060020a0388169163058b316c916004808201926020929091908290030181600087803b1580156200028a57600080fd5b505af11580156200029f573d6000803e3d6000fd5b505050506040513d6020811015620002b657600080fd5b5051604080517f49991ec80000000000000000000000000000000000000000000000000000000081529051600160a060020a038916916349991ec89160048083019260209291908290030181600087803b1580156200031457600080fd5b505af115801562000329573d6000803e3d6000fd5b505050506040513d60208110156200034057600080fd5b5051604080517c010000000000000000000000000000000000000000000000000000000063ffffffff88160281526004810195909552602485019390935260448401919091526064830152516084808301926020929190829003018186803b158015620003ac57600080fd5b505af4158015620003c1573d6000803e3d6000fd5b505050506040513d6020811015620003d857600080fd5b5050604080517f75e5598c000000000000000000000000000000000000000000000000000000008152905173__ExecutionStore________________________9163c0adc0b2916001918591600160a060020a038816916375e5598c9160048083019260209291908290030181600087803b1580156200045757600080fd5b505af11580156200046c573d6000803e3d6000fd5b505050506040513d60208110156200048357600080fd5b5051604080517f49991ec80000000000000000000000000000000000000000000000000000000081529051600160a060020a038916916349991ec89160048083019260209291908290030181600087803b158015620004e157600080fd5b505af1158015620004f6573d6000803e3d6000fd5b505050506040513d60208110156200050d57600080fd5b5051604080517c010000000000000000000000000000000000000000000000000000000063ffffffff88160281526004810195909552602485019390935260448401919091526064830152516084808301926020929190829003018186803b1580156200057957600080fd5b505af41580156200058e573d6000803e3d6000fd5b505050506040513d6020811015620005a557600080fd5b5050604080517fc6702187000000000000000000000000000000000000000000000000000000008152905173__ExecutionStore________________________9163c0adc0b2916001918591600160a060020a0388169163c67021879160048083019260209291908290030181600087803b1580156200062457600080fd5b505af115801562000639573d6000803e3d6000fd5b505050506040513d60208110156200065057600080fd5b5051604080517f49991ec80000000000000000000000000000000000000000000000000000000081529051600160a060020a038916916349991ec89160048083019260209291908290030181600087803b158015620006ae57600080fd5b505af1158015620006c3573d6000803e3d6000fd5b505050506040513d6020811015620006da57600080fd5b5051604080517c010000000000000000000000000000000000000000000000000000000063ffffffff88160281526004810195909552602485019390935260448401919091526064830152516084808301926020929190829003018186803b1580156200074657600080fd5b505af41580156200075b573d6000803e3d6000fd5b505050506040513d60208110156200077257600080fd5b50600190506000806200078d64010000000062000834810204565b620007a064010000000062000810810204565b187fffffffff000000000000000000000000000000000000000000000000000000001681526020810191909152604001600020805460ff19169115159190911790555062000858915050565b7f01ffc9a70000000000000000000000000000000000000000000000000000000090565b7fdc3d2a7b0000000000000000000000000000000000000000000000000000000090565b7fb6b4ee6d0000000000000000000000000000000000000000000000000000000090565b612ad680620008686000396000f3006080604052600436106101245763ffffffff60e060020a60003504166301ffc9a7811461012657806302e7491e1461015c57806312aaac701461018e57806316c61ccc146102075780631d3812401461021c5780633f4ba83a1461023a5780634eee424a1461024f57806353d413c514610267578063747442d3146102825780637d96fa581461029f57806380e9e9e1146102b45780638456cb591461031c5780639010f72614610331578063b187bd2614610349578063b1a34e0d1461035e578063b61d27f614610458578063bf2f20ad146104c1578063c9100bcb146104d6578063c9d24ecc14610659578063ccfe58681461066e578063d202158d14610686578063e99896b8146106a1578063f5074f41146106b9578063fc0fc849146106da575b005b34801561013257600080fd5b50610148600160e060020a0319600435166106ef565b604080519115158252519081900360200190f35b34801561016857600080fd5b5061017161070e565b60408051600160e060020a03199092168252519081900360200190f35b34801561019a57600080fd5b506101a6600435610733565b60408051602080820185905291810183905260608082528551908201528451909182916080830191878101910280838360005b838110156101f15781810151838201526020016101d9565b5050505090500194505050505060405180910390f35b34801561021357600080fd5b506101486107e6565b34801561022857600080fd5b506101486004356024356044356107ef565b34801561024657600080fd5b506101246108c8565b34801561025b57600080fd5b50610148600435610921565b34801561027357600080fd5b5061014860043560243561127e565b34801561028e57600080fd5b50610148600435602435151561134f565b3480156102ab57600080fd5b506101716113dc565b3480156102c057600080fd5b506102cc600435611400565b60408051602080825283518183015283519192839290830191858101910280838360005b838110156103085781810151838201526020016102f0565b505050509050019250505060405180910390f35b34801561032857600080fd5b506101246114f0565b34801561033d57600080fd5b506102cc60043561154b565b34801561035557600080fd5b506101486115ae565b34801561036a57600080fd5b50604080516020601f606435600481810135928301849004840285018401909552818452610446948035946024803595600160a060020a0360443516953695608494930191819084018382808284375050604080516020601f89358b018035918201839004830284018301909452808352979a99988101979196509182019450925082915084018382808284375050604080516020601f89358b018035918201839004830284018301909452808352979a9998810197919650918201945092508291508401838280828437509497506115b79650505050505050565b60408051918252519081900360200190f35b34801561046457600080fd5b50604080516020600460443581810135601f8101849004840285018401909552848452610446948235600160a060020a0316946024803595369594606494920191908190840183828082843750949750611cd19650505050505050565b3480156104cd57600080fd5b50610171611dd2565b3480156104e257600080fd5b506104ee600435611df6565b6040518087815260200186815260200185600160a060020a0316600160a060020a03168152602001806020018060200180602001848103845287818151815260200191508051906020019080838360005b8381101561055757818101518382015260200161053f565b50505050905090810190601f1680156105845780820380516001836020036101000a031916815260200191505b50848103835286518152865160209182019188019080838360005b838110156105b757818101518382015260200161059f565b50505050905090810190601f1680156105e45780820380516001836020036101000a031916815260200191505b50848103825285518152855160209182019187019080838360005b838110156106175781810151838201526020016105ff565b50505050905090810190601f1680156106445780820380516001836020036101000a031916815260200191505b50995050505050505050505060405180910390f35b34801561066557600080fd5b50610446611fbd565b34801561067a57600080fd5b50610124600435611fc3565b34801561069257600080fd5b50610148600435602435612073565b3480156106ad57600080fd5b506101246004356120f0565b3480156106c557600080fd5b50610124600160a060020a0360043516612185565b3480156106e657600080fd5b506104466121b9565b600160e060020a03191660009081526020819052604090205460ff1690565b7f01ffc9a7000000000000000000000000000000000000000000000000000000005b90565b6060600080610740612a30565b6000858152600260209081526040918290208251815460a0938102820184019094526080810184815290939192849260608401928592849284918701828280156107a957602002820191906000526020600020905b815481526020019060010190808311610795575b5050509190925250505081526002820154602080830191909152600390920154604091820152825151918301519201519097919650945092505050565b60095460ff1681565b60006107f96121bf565b151561080457600080fd5b60095460ff161561081457600080fd5b604080517fc0adc0b200000000000000000000000000000000000000000000000000000000815260016004820152602481018690526044810185905260648101849052905173__ExecutionStore________________________9163c0adc0b2916084808301926020929190829003018186803b15801561089457600080fd5b505af41580156108a8573d6000803e3d6000fd5b505050506040513d60208110156108be57600080fd5b5051949350505050565b6108d06121bf565b15156108db57600080fd5b60095460ff1615156108ec57600080fd5b6009805460ff191690556040517fa45f47fdea8a1efdd9029a5691c7f759c32b7c698632b563573e155625d1693390600090a1565b600061092b612a58565b60095460ff161561093b57600080fd5b604080517f4a5f431f000000000000000000000000000000000000000000000000000000008152600a6004820152602481018590529051849160009173__ClaimStore____________________________91634a5f431f9160448083019286929190829003018186803b1580156109b157600080fd5b505af41580156109c5573d6000803e3d6000fd5b505050506040513d6000823e601f3d908101601f1916820160405260c08110156109ee57600080fd5b8151602083015160408401516060850180519395929491939183019291640100000000811115610a1d57600080fd5b82016020810184811115610a3057600080fd5b8151640100000000811182820187101715610a4a57600080fd5b50509291906020018051640100000000811115610a6657600080fd5b82016020810184811115610a7957600080fd5b8151640100000000811182820187101715610a9357600080fd5b50509291906020018051640100000000811115610aaf57600080fd5b82016020810184811115610ac257600080fd5b8151640100000000811182820187101715610adc57600080fd5b50969950505050600160a060020a03871615159550610b0094505050505057600080fd5b610b086121bf565b15610b1257610e1a565b33600160a060020a0382161415610b2857610e1a565b73__ERC165Query___________________________63e9c54384600160a060020a038316610b546113dc565b6040805160e060020a63ffffffff8616028152600160a060020a039093166004840152600160e060020a03199091166024830152516044808301926020929190829003018186803b158015610ba857600080fd5b505af4158015610bbc573d6000803e3d6000fd5b505050506040513d6020811015610bd257600080fd5b505115610d8d57604080517f63f14c3c0000000000000000000000000000000000000000000000000000000081523360048201529051600160a060020a0383169163d202158d9173__KeyStore______________________________916363f14c3c916024808301926020929190829003018186803b158015610c5457600080fd5b505af4158015610c68573d6000803e3d6000fd5b505050506040513d6020811015610c7e57600080fd5b5051600154604080517f75e5598c0000000000000000000000000000000000000000000000000000000081529051600160a060020a03909216916375e5598c916004808201926020929091908290030181600087803b158015610ce057600080fd5b505af1158015610cf4573d6000803e3d6000fd5b505050506040513d6020811015610d0a57600080fd5b50516040805160e060020a63ffffffff8616028152600481019390935260248301919091525160448083019260209291908290030181600087803b158015610d5157600080fd5b505af1158015610d65573d6000803e3d6000fd5b505050506040513d6020811015610d7b57600080fd5b50511515610d8857600080fd5b610e1a565b604080517f08c379a000000000000000000000000000000000000000000000000000000000815260206004820152602a60248201527f53656e646572206973204e4f54204d616e6167656d656e74206f722053656c6660448201527f206f722049737375657200000000000000000000000000000000000000000000606482015290519081900360840190fd5b6000858152600a6020908152604091829020825160c0810184528154815260018083015482850152600280840154600160a060020a0316838701526003840180548751601f948216156101000260001901909116929092049283018690048602820186019096528181529194929360608601939190830182828015610ee05780601f10610eb557610100808354040283529160200191610ee0565b820191906000526020600020905b815481529060010190602001808311610ec357829003601f168201915b505050918352505060048201805460408051602060026001851615610100026000190190941693909304601f8101849004840282018401909252818152938201939291830182828015610f745780601f10610f4957610100808354040283529160200191610f74565b820191906000526020600020905b815481529060010190602001808311610f5757829003601f168201915b505050918352505060058201805460408051602060026001851615610100026000190190941693909304601f81018490048402820184019092528181529382019392918301828280156110085780601f10610fdd57610100808354040283529160200191611008565b820191906000526020600020905b815481529060010190602001808311610feb57829003601f168201915b505050919092525050506040810151909350600160a060020a0316151561102e57600080fd5b604080517f91ac3cbe000000000000000000000000000000000000000000000000000000008152600a600482015260248101879052905173__ClaimStore____________________________916391ac3cbe916044808301926020929190829003018186803b1580156110a057600080fd5b505af41580156110b4573d6000803e3d6000fd5b505050506040513d60208110156110ca57600080fd5b505115611271578260400151600160a060020a0316836000015186600019167f3cf57863a89432c61c4a27073c6ee39e8a764bff5a05aebfbcdcdc80b2e6130a8660200151876060015188608001518960a0015160405180858152602001806020018060200180602001848103845287818151815260200191508051906020019080838360005b83811015611169578181015183820152602001611151565b50505050905090810190601f1680156111965780820380516001836020036101000a031916815260200191505b50848103835286518152865160209182019188019080838360005b838110156111c95781810151838201526020016111b1565b50505050905090810190601f1680156111f65780820380516001836020036101000a031916815260200191505b50848103825285518152855160209182019187019080838360005b83811015611229578181015183820152602001611211565b50505050905090810190601f1680156112565780820380516001836020036101000a031916815260200191505b5097505050505050505060405180910390a460019350611276565b600093505b505050919050565b60006112886121bf565b151561129357600080fd5b60095460ff16156112a357600080fd5b604080517f166b5fb7000000000000000000000000000000000000000000000000000000008152600160048201526024810185905260448101849052905173__ExecutionStore________________________9163166b5fb7916064808301926020929190829003018186803b15801561131c57600080fd5b505af4158015611330573d6000803e3d6000fd5b505050506040513d602081101561134657600080fd5b50519392505050565b60095460009060ff161561136257600080fd5b604080517f9d1e169500000000000000000000000000000000000000000000000000000000815260016004820152602481018590528315156044820152905173__ExecutionStore________________________91639d1e1695916064808301926020929190829003018186803b15801561131c57600080fd5b7fdc3d2a7b0000000000000000000000000000000000000000000000000000000090565b6060600a73__ClaimStore____________________________634adcb5379091846040518363ffffffff1660e060020a028152600401808381526020018281526020019250505060006040518083038186803b15801561145f57600080fd5b505af4158015611473573d6000803e3d6000fd5b505050506040513d6000823e601f3d908101601f19168201604052602081101561149c57600080fd5b8101908080516401000000008111156114b457600080fd5b820160208101848111156114c757600080fd5b81518560208202830111640100000000821117156114e457600080fd5b50909695505050505050565b6114f86121bf565b151561150357600080fd5b60095460ff161561151357600080fd5b6009805460ff191660011790556040517f9e87fac88ff661f02d44f95383c817fece4bce600a3dab7a54406878b965e75290600090a1565b6000818152600360209081526040918290208054835181840281018401909452808452606093928301828280156115a257602002820191906000526020600020905b8154815260019091019060200180831161158d575b50505050509050919050565b60095460ff1690565b60095460009081908190819060ff16156115d057600080fd5b600154604080517f49991ec80000000000000000000000000000000000000000000000000000000081529051600160a060020a03909216916349991ec8916004808201926020929091908290030181600087803b15801561163057600080fd5b505af1158015611644573d6000803e3d6000fd5b505050506040513d602081101561165a57600080fd5b505189141561167b576116708a8a8a8a8a61238b565b151561167b57600080fd5b6116836121bf565b15925082156118d1576040517fb61d27f600000000000000000000000000000000000000000000000000000000815230600482018181526000602484018190526060604485019081523660648601819052939463b61d27f694869484939192909190608401848480828437820191505095505050505050602060405180830381600087803b15801561171457600080fd5b505af1158015611728573d6000803e3d6000fd5b505050506040513d602081101561173e57600080fd5b8101908080519060200190929190505050935087600160a060020a03168a857fe6b6db97dedfb44cbced367387e40b3f92dbee1b1be87f9367f7b673532b0d698c8b8b8b60405180858152602001806020018060200180602001848103845287818151815260200191508051906020019080838360005b838110156117cd5781810151838201526020016117b5565b50505050905090810190601f1680156117fa5780820380516001836020036101000a031916815260200191505b50848103835286518152865160209182019188019080838360005b8381101561182d578181015183820152602001611815565b50505050905090810190601f16801561185a5780820380516001836020036101000a031916815260200191505b50848103825285518152855160209182019187019080838360005b8381101561188d578181015183820152602001611875565b50505050905090810190601f1680156118ba5780820380516001836020036101000a031916815260200191505b5097505050505050505060405180910390a4611cc4565b600a73__ClaimStore____________________________63eef04d5090918c8c8c8c8c8c6040518863ffffffff1660e060020a0281526004018088815260200187815260200186815260200185600160a060020a0316600160a060020a03168152602001806020018060200180602001848103845287818151815260200191508051906020019080838360005b8381101561197657818101518382015260200161195e565b50505050905090810190601f1680156119a35780820380516001836020036101000a031916815260200191505b50848103835286518152865160209182019188019080838360005b838110156119d65781810151838201526020016119be565b50505050905090810190601f168015611a035780820380516001836020036101000a031916815260200191505b50848103825285518152855160209182019187019080838360005b83811015611a36578181015183820152602001611a1e565b50505050905090810190601f168015611a635780820380516001836020036101000a031916815260200191505b509a5050505050505050505050604080518083038186803b158015611a8757600080fd5b505af4158015611a9b573d6000803e3d6000fd5b505050506040513d6040811015611ab157600080fd5b50805160209091015190925090508015611b445787600160a060020a03168a83600019167f46149b18aa084502c3f12bc75e19eda8bda8d102b82cce8474677a6d0d5f43c58c8b8b8b6040518085815260200180602001806020018060200184810384528781815181526020019150805190602001908083836000838110156117cd5781810151838201526020016117b5565b87600160a060020a03168a83600019167f3bab293fc00db832d7619a9299914251b8747c036867ec056cbd506f60135b138c8b8b8b60405180858152602001806020018060200180602001848103845287818151815260200191508051906020019080838360005b83811015611bc4578181015183820152602001611bac565b50505050905090810190601f168015611bf15780820380516001836020036101000a031916815260200191505b50848103835286518152865160209182019188019080838360005b83811015611c24578181015183820152602001611c0c565b50505050905090810190601f168015611c515780820380516001836020036101000a031916815260200191505b50848103825285518152855160209182019187019080838360005b83811015611c84578181015183820152602001611c6c565b50505050905090810190601f168015611cb15780820380516001836020036101000a031916815260200191505b5097505050505050505060405180910390a45b5050509695505050505050565b60095460009060ff1615611ce457600080fd5b6040517f75cbc07b000000000000000000000000000000000000000000000000000000008152600160048201818152600160a060020a03871660248401526044830186905260806064840190815285516084850152855173__ExecutionStore________________________946375cbc07b94938a938a938a9360a40190602085019080838360005b83811015611d85578181015183820152602001611d6d565b50505050905090810190601f168015611db25780820380516001836020036101000a031916815260200191505b509550505050505060206040518083038186803b15801561089457600080fd5b7fb6b4ee6d0000000000000000000000000000000000000000000000000000000090565b604080517f4a5f431f000000000000000000000000000000000000000000000000000000008152600a6004820152602481018390529051600091829182916060918291829173__ClaimStore____________________________91634a5f431f9160448083019289929190829003018186803b158015611e7557600080fd5b505af4158015611e89573d6000803e3d6000fd5b505050506040513d6000823e601f3d908101601f1916820160405260c0811015611eb257600080fd5b8151602083015160408401516060850180519395929491939183019291640100000000811115611ee157600080fd5b82016020810184811115611ef457600080fd5b8151640100000000811182820187101715611f0e57600080fd5b50509291906020018051640100000000811115611f2a57600080fd5b82016020810184811115611f3d57600080fd5b8151640100000000811182820187101715611f5757600080fd5b50509291906020018051640100000000811115611f7357600080fd5b82016020810184811115611f8657600080fd5b8151640100000000811182820187101715611fa057600080fd5b505092919050505095509550955095509550955091939550919395565b60045490565b60095460ff1615611fd357600080fd5b611fdb6121bf565b1515611fe657600080fd5b604080517f16ae2e410000000000000000000000000000000000000000000000000000000081526001600482015260248101839052905173__ExecutionStore________________________916316ae2e41916044808301926000929190829003018186803b15801561205857600080fd5b505af415801561206c573d6000803e3d6000fd5b5050505050565b604080517f41c77612000000000000000000000000000000000000000000000000000000008152600160048201526024810184905260448101839052905160009173__KeyStore______________________________916341c7761291606480820192602092909190829003018186803b15801561131c57600080fd5b60095460ff161561210057600080fd5b6121086121bf565b151561211357600080fd5b604080517f2bd1e6560000000000000000000000000000000000000000000000000000000081526001600482015260248101839052905173__ExecutionStore________________________91632bd1e656916044808301926000929190829003018186803b15801561205857600080fd5b61218d6121bf565b151561219857600080fd5b600160a060020a03811615156121ad57600080fd5b80600160a060020a0316ff5b600c5490565b6000333014156121d157506001610730565b6005546001141561238557604080517f63f14c3c000000000000000000000000000000000000000000000000000000008152336004820152905173__KeyStore______________________________916341c776129160019184916363f14c3c91602480820192602092909190829003018186803b15801561225257600080fd5b505af4158015612266573d6000803e3d6000fd5b505050506040513d602081101561227c57600080fd5b5051600154604080517f058b316c0000000000000000000000000000000000000000000000000000000081529051600160a060020a039092169163058b316c916004808201926020929091908290030181600087803b1580156122de57600080fd5b505af11580156122f2573d6000803e3d6000fd5b505050506040513d602081101561230857600080fd5b50516040805160e060020a63ffffffff8716028152600481019490945260248401929092526044830152516064808301926020929190829003018186803b15801561235257600080fd5b505af4158015612366573d6000803e3d6000fd5b505050506040513d602081101561237c57600080fd5b50519050610730565b50600090565b600154604080517f49991ec800000000000000000000000000000000000000000000000000000000815290516000928392600160a060020a03909116916349991ec89160048082019260209290919082900301818787803b1580156123ef57600080fd5b505af1158015612403573d6000803e3d6000fd5b505050506040513d602081101561241957600080fd5b5051861415612a215773__ClaimStore____________________________633b8a12c873__ClaimStore____________________________631d203be8308b886040518463ffffffff1660e060020a0281526004018084600160a060020a0316600160a060020a0316815260200183815260200180602001828103825283818151815260200191508051906020019080838360005b838110156124c65781810151838201526020016124ae565b50505050905090810190601f1680156124f35780820380516001836020036101000a031916815260200191505b5094505050505060206040518083038186803b15801561251257600080fd5b505af4158015612526573d6000803e3d6000fd5b505050506040513d602081101561253c57600080fd5b50516040805160e060020a63ffffffff851602815260048101838152602482019283528951604483015289518a93919260640190602085019080838360005b8381101561259357818101518382015260200161257b565b50505050905090810190601f1680156125c05780820380516001836020036101000a031916815260200191505b50935050505060206040518083038186803b1580156125de57600080fd5b505af41580156125f2573d6000803e3d6000fd5b505050506040513d602081101561260857600080fd5b50519050600160a060020a0385811690821614156126295760019150612a26565b600160a060020a0385163014156127ec57604080517f63f14c3c000000000000000000000000000000000000000000000000000000008152600160a060020a0383166004820152905173__KeyStore______________________________916341c776129160019184916363f14c3c91602480820192602092909190829003018186803b1580156126b957600080fd5b505af41580156126cd573d6000803e3d6000fd5b505050506040513d60208110156126e357600080fd5b5051600154604080517fc67021870000000000000000000000000000000000000000000000000000000081529051600160a060020a039092169163c6702187916004808201926020929091908290030181600087803b15801561274557600080fd5b505af1158015612759573d6000803e3d6000fd5b505050506040513d602081101561276f57600080fd5b50516040805160e060020a63ffffffff8716028152600481019490945260248401929092526044830152516064808301926020929190829003018186803b1580156127b957600080fd5b505af41580156127cd573d6000803e3d6000fd5b505050506040513d60208110156127e357600080fd5b50519150612a26565b73__ERC165Query___________________________63e9c54384600160a060020a0387166128186113dc565b6040805160e060020a63ffffffff8616028152600160a060020a039093166004840152600160e060020a03199091166024830152516044808301926020929190829003018186803b15801561286c57600080fd5b505af4158015612880573d6000803e3d6000fd5b505050506040513d602081101561289657600080fd5b505115612a215784600160a060020a031663d202158d73__KeyStore______________________________6363f14c3c846040518263ffffffff1660e060020a0281526004018082600160a060020a0316600160a060020a0316815260200191505060206040518083038186803b15801561291057600080fd5b505af4158015612924573d6000803e3d6000fd5b505050506040513d602081101561293a57600080fd5b5051600154604080517fc67021870000000000000000000000000000000000000000000000000000000081529051600160a060020a039092169163c6702187916004808201926020929091908290030181600087803b15801561299c57600080fd5b505af11580156129b0573d6000803e3d6000fd5b505050506040513d60208110156129c657600080fd5b50516040805160e060020a63ffffffff8616028152600481019390935260248301919091525160448083019260209291908290030181600087803b158015612a0d57600080fd5b505af11580156127cd573d6000803e3d6000fd5b600091505b5095945050505050565b606060405190810160405280612a44612a98565b815260006020820181905260409091015290565b60c06040519081016040528060008152602001600081526020016000600160a060020a031681526020016060815260200160608152602001606081525090565b604080516020810190915260608152905600a165627a7a72305820b58c8336e7f58378fd325a0aa0caa24d1ba136507cea4dd89170fb3f7d0f29410029a165627a7a7230582004db46d667ec8c79d6466c5089d7b9564afdecb72979c1760a2854635f8a59a40029",
  "source": "pragma solidity 0.4.24;\n\nimport \"./Identity.sol\";\nimport \"./constants/KeyEnums.sol\";\n\n\n/**\n * @title IdentityRegistry\n * @author Wu Di\n * @notice Implement registry of Identity\n */\ncontract IdentityRegistry {\n\n    event NewIdentity(address senderAddress, address identityAddress);\n\n    KeyEnums private keyEnums;\n\n    constructor(KeyEnums _keyEnums) public {\n        keyEnums = _keyEnums;\n    }\n\n    // Mapping from ethereum wallet to ERC725 + ERC735 identity\n    mapping(address => address) public identities;\n\n    /**\n     * @dev Creates a new identity and adds it to the registry\n     */\n    function createIdentity()\n        external\n        returns (address)\n    {\n        require(identities[msg.sender] == address(0), \"Identity exists\");\n        Identity newIdentity = new Identity(msg.sender, keyEnums);\n        identities[msg.sender] = newIdentity;\n        emit NewIdentity(msg.sender, newIdentity);\n\n        return newIdentity;\n    }\n\n    /**\n     * @dev Checks whether an identity exists in the registry\n     */\n    function hasIdentity(address addr)\n        public\n        view\n        returns (bool)\n    {\n        return identities[addr] != address(0);\n    }\n}\n",
  "sourcePath": "/Users/lookrain/Documents/work/rate3-monorepo/packages/demo/identity/contracts/IdentityRegistry.sol",
  "compiler": {
    "name": "solc",
    "version": "0.4.24+commit.e67f0147.Emscripten.clang"
  },
  "schemaVersion": "2.0.1",
  "updatedAt": "2018-09-20T03:59:34.973Z"
}