{
  "contractName": "Identity",
  "abi": [
    {
      "constant": true,
      "inputs": [
        {
          "name": "interfaceID",
          "type": "bytes4"
        }
      ],
      "name": "supportsInterface",
      "outputs": [
        {
          "name": "",
          "type": "bool"
        }
      ],
      "payable": false,
      "stateMutability": "view",
      "type": "function"
    },
    {
      "constant": true,
      "inputs": [],
      "name": "ERC165ID",
      "outputs": [
        {
          "name": "",
          "type": "bytes4"
        }
      ],
      "payable": false,
      "stateMutability": "pure",
      "type": "function"
    },
    {
      "constant": true,
      "inputs": [],
      "name": "MANAGEMENT_KEY",
      "outputs": [
        {
          "name": "",
          "type": "uint256"
        }
      ],
      "payable": false,
      "stateMutability": "view",
      "type": "function"
    },
    {
      "constant": true,
      "inputs": [
        {
          "name": "_key",
          "type": "bytes32"
        }
      ],
      "name": "getKey",
      "outputs": [
        {
          "name": "purposes",
          "type": "uint256[]"
        },
        {
          "name": "keyType",
          "type": "uint256"
        },
        {
          "name": "key",
          "type": "bytes32"
        }
      ],
      "payable": false,
      "stateMutability": "view",
      "type": "function"
    },
    {
      "constant": true,
      "inputs": [],
      "name": "_paused",
      "outputs": [
        {
          "name": "",
          "type": "bool"
        }
      ],
      "payable": false,
      "stateMutability": "view",
      "type": "function"
    },
    {
      "constant": false,
      "inputs": [
        {
          "name": "_key",
          "type": "bytes32"
        },
        {
          "name": "_purpose",
          "type": "uint256"
        },
        {
          "name": "_keyType",
          "type": "uint256"
        }
      ],
      "name": "addKey",
      "outputs": [
        {
          "name": "success",
          "type": "bool"
        }
      ],
      "payable": false,
      "stateMutability": "nonpayable",
      "type": "function"
    },
    {
      "constant": true,
      "inputs": [],
      "name": "RSA_TYPE",
      "outputs": [
        {
          "name": "",
          "type": "uint256"
        }
      ],
      "payable": false,
      "stateMutability": "view",
      "type": "function"
    },
    {
      "constant": true,
      "inputs": [],
      "name": "actionThreshold",
      "outputs": [
        {
          "name": "",
          "type": "uint256"
        }
      ],
      "payable": false,
      "stateMutability": "view",
      "type": "function"
    },
    {
      "constant": false,
      "inputs": [],
      "name": "unpause",
      "outputs": [],
      "payable": false,
      "stateMutability": "nonpayable",
      "type": "function"
    },
    {
      "constant": true,
      "inputs": [],
      "name": "ECDSA_TYPE",
      "outputs": [
        {
          "name": "",
          "type": "uint256"
        }
      ],
      "payable": false,
      "stateMutability": "view",
      "type": "function"
    },
    {
      "constant": false,
      "inputs": [
        {
          "name": "_claimId",
          "type": "bytes32"
        }
      ],
      "name": "removeClaim",
      "outputs": [
        {
          "name": "success",
          "type": "bool"
        }
      ],
      "payable": false,
      "stateMutability": "nonpayable",
      "type": "function"
    },
    {
      "constant": false,
      "inputs": [
        {
          "name": "_key",
          "type": "bytes32"
        },
        {
          "name": "_purpose",
          "type": "uint256"
        }
      ],
      "name": "removeKey",
      "outputs": [
        {
          "name": "success",
          "type": "bool"
        }
      ],
      "payable": false,
      "stateMutability": "nonpayable",
      "type": "function"
    },
    {
      "constant": true,
      "inputs": [
        {
          "name": "",
          "type": "uint256"
        }
      ],
      "name": "execution",
      "outputs": [
        {
          "name": "to",
          "type": "address"
        },
        {
          "name": "value",
          "type": "uint256"
        },
        {
          "name": "data",
          "type": "bytes"
        }
      ],
      "payable": false,
      "stateMutability": "view",
      "type": "function"
    },
    {
      "constant": true,
      "inputs": [
        {
          "name": "addr",
          "type": "address"
        }
      ],
      "name": "addrToKey",
      "outputs": [
        {
          "name": "",
          "type": "bytes32"
        }
      ],
      "payable": false,
      "stateMutability": "pure",
      "type": "function"
    },
    {
      "constant": false,
      "inputs": [
        {
          "name": "_id",
          "type": "uint256"
        },
        {
          "name": "_approve",
          "type": "bool"
        }
      ],
      "name": "approve",
      "outputs": [
        {
          "name": "success",
          "type": "bool"
        }
      ],
      "payable": false,
      "stateMutability": "nonpayable",
      "type": "function"
    },
    {
      "constant": true,
      "inputs": [],
      "name": "ACTION_KEY",
      "outputs": [
        {
          "name": "",
          "type": "uint256"
        }
      ],
      "payable": false,
      "stateMutability": "view",
      "type": "function"
    },
    {
      "constant": true,
      "inputs": [],
      "name": "ERC725ID",
      "outputs": [
        {
          "name": "",
          "type": "bytes4"
        }
      ],
      "payable": false,
      "stateMutability": "pure",
      "type": "function"
    },
    {
      "constant": true,
      "inputs": [
        {
          "name": "_topic",
          "type": "uint256"
        }
      ],
      "name": "getClaimIdsByTopic",
      "outputs": [
        {
          "name": "claimIds",
          "type": "bytes32[]"
        }
      ],
      "payable": false,
      "stateMutability": "view",
      "type": "function"
    },
    {
      "constant": false,
      "inputs": [],
      "name": "pause",
      "outputs": [],
      "payable": false,
      "stateMutability": "nonpayable",
      "type": "function"
    },
    {
      "constant": true,
      "inputs": [
        {
          "name": "_purpose",
          "type": "uint256"
        }
      ],
      "name": "getKeysByPurpose",
      "outputs": [
        {
          "name": "keys",
          "type": "bytes32[]"
        }
      ],
      "payable": false,
      "stateMutability": "view",
      "type": "function"
    },
    {
      "constant": true,
      "inputs": [],
      "name": "ENCRYPTION_KEY",
      "outputs": [
        {
          "name": "",
          "type": "uint256"
        }
      ],
      "payable": false,
      "stateMutability": "view",
      "type": "function"
    },
    {
      "constant": true,
      "inputs": [],
      "name": "managementThreshold",
      "outputs": [
        {
          "name": "",
          "type": "uint256"
        }
      ],
      "payable": false,
      "stateMutability": "view",
      "type": "function"
    },
    {
      "constant": true,
      "inputs": [],
      "name": "isPaused",
      "outputs": [
        {
          "name": "",
          "type": "bool"
        }
      ],
      "payable": false,
      "stateMutability": "view",
      "type": "function"
    },
    {
      "constant": false,
      "inputs": [
        {
          "name": "_topic",
          "type": "uint256"
        },
        {
          "name": "_scheme",
          "type": "uint256"
        },
        {
          "name": "_issuer",
          "type": "address"
        },
        {
          "name": "_signature",
          "type": "bytes"
        },
        {
          "name": "_data",
          "type": "bytes"
        },
        {
          "name": "_uri",
          "type": "string"
        }
      ],
      "name": "addClaim",
      "outputs": [
        {
          "name": "claimRequestId",
          "type": "uint256"
        }
      ],
      "payable": false,
      "stateMutability": "nonpayable",
      "type": "function"
    },
    {
      "constant": false,
      "inputs": [
        {
          "name": "_to",
          "type": "address"
        },
        {
          "name": "_value",
          "type": "uint256"
        },
        {
          "name": "_data",
          "type": "bytes"
        }
      ],
      "name": "execute",
      "outputs": [
        {
          "name": "executionId",
          "type": "uint256"
        }
      ],
      "payable": false,
      "stateMutability": "nonpayable",
      "type": "function"
    },
    {
      "constant": true,
      "inputs": [],
      "name": "ERC735ID",
      "outputs": [
        {
          "name": "",
          "type": "bytes4"
        }
      ],
      "payable": false,
      "stateMutability": "pure",
      "type": "function"
    },
    {
      "constant": true,
      "inputs": [],
      "name": "CLAIM_SIGNER_KEY",
      "outputs": [
        {
          "name": "",
          "type": "uint256"
        }
      ],
      "payable": false,
      "stateMutability": "view",
      "type": "function"
    },
    {
      "constant": true,
      "inputs": [
        {
          "name": "_claimId",
          "type": "bytes32"
        }
      ],
      "name": "getClaim",
      "outputs": [
        {
          "name": "topic",
          "type": "uint256"
        },
        {
          "name": "scheme",
          "type": "uint256"
        },
        {
          "name": "issuer",
          "type": "address"
        },
        {
          "name": "signature",
          "type": "bytes"
        },
        {
          "name": "data",
          "type": "bytes"
        },
        {
          "name": "uri",
          "type": "string"
        }
      ],
      "payable": false,
      "stateMutability": "view",
      "type": "function"
    },
    {
      "constant": true,
      "inputs": [],
      "name": "numKeys",
      "outputs": [
        {
          "name": "",
          "type": "uint256"
        }
      ],
      "payable": false,
      "stateMutability": "view",
      "type": "function"
    },
    {
      "constant": false,
      "inputs": [
        {
          "name": "threshold",
          "type": "uint256"
        }
      ],
      "name": "changeManagementThreshold",
      "outputs": [],
      "payable": false,
      "stateMutability": "nonpayable",
      "type": "function"
    },
    {
      "constant": true,
      "inputs": [
        {
          "name": "_key",
          "type": "bytes32"
        },
        {
          "name": "purpose",
          "type": "uint256"
        }
      ],
      "name": "keyHasPurpose",
      "outputs": [
        {
          "name": "exists",
          "type": "bool"
        }
      ],
      "payable": false,
      "stateMutability": "view",
      "type": "function"
    },
    {
      "constant": false,
      "inputs": [
        {
          "name": "threshold",
          "type": "uint256"
        }
      ],
      "name": "changeActionThreshold",
      "outputs": [],
      "payable": false,
      "stateMutability": "nonpayable",
      "type": "function"
    },
    {
      "constant": false,
      "inputs": [
        {
          "name": "_recipient",
          "type": "address"
        }
      ],
      "name": "destroyAndSend",
      "outputs": [],
      "payable": false,
      "stateMutability": "nonpayable",
      "type": "function"
    },
    {
      "constant": true,
      "inputs": [],
      "name": "numClaims",
      "outputs": [
        {
          "name": "",
          "type": "uint256"
        }
      ],
      "payable": false,
      "stateMutability": "view",
      "type": "function"
    },
    {
      "inputs": [
        {
          "name": "_identityOwner",
          "type": "address"
        }
      ],
      "payable": false,
      "stateMutability": "nonpayable",
      "type": "constructor"
    },
    {
      "payable": true,
      "stateMutability": "payable",
      "type": "fallback"
    },
    {
      "anonymous": false,
      "inputs": [
        {
          "indexed": true,
          "name": "claimRequestId",
          "type": "uint256"
        },
        {
          "indexed": true,
          "name": "topic",
          "type": "uint256"
        },
        {
          "indexed": false,
          "name": "scheme",
          "type": "uint256"
        },
        {
          "indexed": true,
          "name": "issuer",
          "type": "address"
        },
        {
          "indexed": false,
          "name": "signature",
          "type": "bytes"
        },
        {
          "indexed": false,
          "name": "data",
          "type": "bytes"
        },
        {
          "indexed": false,
          "name": "uri",
          "type": "string"
        }
      ],
      "name": "ClaimRequested",
      "type": "event"
    },
    {
      "anonymous": false,
      "inputs": [
        {
          "indexed": true,
          "name": "claimId",
          "type": "bytes32"
        },
        {
          "indexed": true,
          "name": "topic",
          "type": "uint256"
        },
        {
          "indexed": false,
          "name": "scheme",
          "type": "uint256"
        },
        {
          "indexed": true,
          "name": "issuer",
          "type": "address"
        },
        {
          "indexed": false,
          "name": "signature",
          "type": "bytes"
        },
        {
          "indexed": false,
          "name": "data",
          "type": "bytes"
        },
        {
          "indexed": false,
          "name": "uri",
          "type": "string"
        }
      ],
      "name": "ClaimAdded",
      "type": "event"
    },
    {
      "anonymous": false,
      "inputs": [
        {
          "indexed": true,
          "name": "claimId",
          "type": "bytes32"
        },
        {
          "indexed": true,
          "name": "topic",
          "type": "uint256"
        },
        {
          "indexed": false,
          "name": "scheme",
          "type": "uint256"
        },
        {
          "indexed": true,
          "name": "issuer",
          "type": "address"
        },
        {
          "indexed": false,
          "name": "signature",
          "type": "bytes"
        },
        {
          "indexed": false,
          "name": "data",
          "type": "bytes"
        },
        {
          "indexed": false,
          "name": "uri",
          "type": "string"
        }
      ],
      "name": "ClaimRemoved",
      "type": "event"
    },
    {
      "anonymous": false,
      "inputs": [
        {
          "indexed": true,
          "name": "claimId",
          "type": "bytes32"
        },
        {
          "indexed": true,
          "name": "topic",
          "type": "uint256"
        },
        {
          "indexed": false,
          "name": "scheme",
          "type": "uint256"
        },
        {
          "indexed": true,
          "name": "issuer",
          "type": "address"
        },
        {
          "indexed": false,
          "name": "signature",
          "type": "bytes"
        },
        {
          "indexed": false,
          "name": "data",
          "type": "bytes"
        },
        {
          "indexed": false,
          "name": "uri",
          "type": "string"
        }
      ],
      "name": "ClaimChanged",
      "type": "event"
    },
    {
      "anonymous": false,
      "inputs": [
        {
          "indexed": true,
          "name": "executionId",
          "type": "uint256"
        },
        {
          "indexed": true,
          "name": "to",
          "type": "address"
        },
        {
          "indexed": true,
          "name": "value",
          "type": "uint256"
        },
        {
          "indexed": false,
          "name": "data",
          "type": "bytes"
        }
      ],
      "name": "ExecutionFailed",
      "type": "event"
    },
    {
      "anonymous": false,
      "inputs": [],
      "name": "Paused",
      "type": "event"
    },
    {
      "anonymous": false,
      "inputs": [],
      "name": "Unpaused",
      "type": "event"
    },
    {
      "anonymous": false,
      "inputs": [
        {
          "indexed": true,
          "name": "key",
          "type": "bytes32"
        },
        {
          "indexed": true,
          "name": "purpose",
          "type": "uint256"
        },
        {
          "indexed": true,
          "name": "keyType",
          "type": "uint256"
        }
      ],
      "name": "KeyAdded",
      "type": "event"
    },
    {
      "anonymous": false,
      "inputs": [
        {
          "indexed": true,
          "name": "key",
          "type": "bytes32"
        },
        {
          "indexed": true,
          "name": "purpose",
          "type": "uint256"
        },
        {
          "indexed": true,
          "name": "keyType",
          "type": "uint256"
        }
      ],
      "name": "KeyRemoved",
      "type": "event"
    },
    {
      "anonymous": false,
      "inputs": [
        {
          "indexed": true,
          "name": "executionId",
          "type": "uint256"
        },
        {
          "indexed": true,
          "name": "to",
          "type": "address"
        },
        {
          "indexed": true,
          "name": "value",
          "type": "uint256"
        },
        {
          "indexed": false,
          "name": "data",
          "type": "bytes"
        }
      ],
      "name": "ExecutionRequested",
      "type": "event"
    },
    {
      "anonymous": false,
      "inputs": [
        {
          "indexed": true,
          "name": "executionId",
          "type": "uint256"
        },
        {
          "indexed": true,
          "name": "to",
          "type": "address"
        },
        {
          "indexed": true,
          "name": "value",
          "type": "uint256"
        },
        {
          "indexed": false,
          "name": "data",
          "type": "bytes"
        }
      ],
      "name": "Executed",
      "type": "event"
    },
    {
      "anonymous": false,
      "inputs": [
        {
          "indexed": true,
          "name": "executionId",
          "type": "uint256"
        },
        {
          "indexed": false,
          "name": "approved",
          "type": "bool"
        }
      ],
      "name": "Approved",
      "type": "event"
    }
  ],
  "bytecode": "0x6080604052600180805560028190556006805460ff191690556007553480156200002857600080fd5b5060405160208062003c0683398101604052516000600181806200005464010000000062000226810204565b7fffffffff0000000000000000000000000000000000000000000000000000000016815260208101919091526040016000908120805460ff19169215159290921790915560019080620000af6401000000006200024a810204565b7fffffffff0000000000000000000000000000000000000000000000000000000016815260208101919091526040016000908120805460ff191692151592909217909155600190806200010a6401000000006200026e810204565b7fffffffff000000000000000000000000000000000000000000000000000000001681526020810191909152604001600020805460ff19169115159190911790556200015f8264010000000062000292810204565b905062000178816001806401000000006200029e810204565b6200019081600260016401000000006200029e810204565b620001a881600360016401000000006200029e810204565b60016002819055808055600080620001c86401000000006200026e810204565b620001db6401000000006200024a810204565b187fffffffff000000000000000000000000000000000000000000000000000000001681526020810191909152604001600020805460ff191691151591909117905550620005909050565b7f01ffc9a70000000000000000000000000000000000000000000000000000000090565b7fdc3d2a7b0000000000000000000000000000000000000000000000000000000090565b7fb6b4ee6d0000000000000000000000000000000000000000000000000000000090565b600160a060020a031690565b620002bb6003848484640100000000620030e7620002ef82021704565b6040518190839085907f480000bb1edad8ca1470381cc334b1917fbd51c6531f3a623ea8e0ec7e38a6e990600090a4505050565b60008381526020859052604090206003810154151562000327576003810184905560028082018390558501805460010190556200039a565b600281015482146200039a57604080517f08c379a000000000000000000000000000000000000000000000000000000000815260206004820181905260248201527f4b6579206578697374732c20636f6e666c696374696e67206b65792074797065604482015290519081900360640190fd5b620003af8184640100000000620004e4810204565b1515620004dd57604080517fb7f663d70000000000000000000000000000000000000000000000000000000081526004810183905260248101859052905173__Arrays________________________________9163b7f663d7916044808301926000929190829003018186803b1580156200042957600080fd5b505af41580156200043e573d6000803e3d6000fd5b505050600084815260018701602052604080822081517f3004e44e000000000000000000000000000000000000000000000000000000008152600481019190915260248101889052905173__Arrays________________________________9350633004e44e92604480840193919291829003018186803b158015620004c357600080fd5b505af4158015620004d8573d6000803e3d6000fd5b505050505b5050505050565b604080517f6c5fa4a30000000000000000000000000000000000000000000000000000000081526004810184905260248101839052905160009173__Arrays________________________________91636c5fa4a391604480820192602092909190829003018186803b1580156200055b57600080fd5b505af415801562000570573d6000803e3d6000fd5b505050506040513d60208110156200058757600080fd5b50519392505050565b61366680620005a06000396000f3006080604052600436106101925763ffffffff60e060020a60003504166301ffc9a7811461019457806302e7491e146101ca578063058b316c146101fc57806312aaac701461022357806316c61ccc1461029c5780631d381240146102b15780632d32d442146102cf57806338f4edd4146102e45780633f4ba83a146102f957806349991ec8146101fc5780634eee424a1461030e57806353d413c5146103265780635dccebba1461034157806363f14c3c146103f1578063747442d31461041257806375e5598c146102cf5780637d96fa581461042f57806380e9e9e1146104445780638456cb59146104ac5780639010f726146104c15780639e140cc8146104d9578063aa0a5142146104ee578063b187bd2614610503578063b1a34e0d14610518578063b61d27f614610600578063bf2f20ad14610669578063c67021871461067e578063c9100bcb14610693578063c9d24ecc14610816578063ccfe58681461082b578063d202158d14610843578063e99896b81461085e578063f5074f4114610876578063fc0fc84914610897575b005b3480156101a057600080fd5b506101b6600160e060020a0319600435166108ac565b604080519115158252519081900360200190f35b3480156101d657600080fd5b506101df6108cb565b60408051600160e060020a03199092168252519081900360200190f35b34801561020857600080fd5b506102116108f0565b60408051918252519081900360200190f35b34801561022f57600080fd5b5061023b6004356108f5565b60408051602080820185905291810183905260608082528551908201528451909182916080830191878101910280838360005b8381101561028657818101518382015260200161026e565b5050505090500194505050505060405180910390f35b3480156102a857600080fd5b506101b66109a8565b3480156102bd57600080fd5b506101b66004356024356044356109b1565b3480156102db57600080fd5b50610211610a0b565b3480156102f057600080fd5b50610211610a10565b34801561030557600080fd5b50610192610a16565b34801561031a57600080fd5b506101b6600435610a6f565b34801561033257600080fd5b506101b6600435602435611005565b34801561034d57600080fd5b506103596004356110e9565b6040518084600160a060020a0316600160a060020a0316815260200183815260200180602001828103825283818151815260200191508051906020019080838360005b838110156103b457818101518382015260200161039c565b50505050905090810190601f1680156103e15780820380516001836020036101000a031916815260200191505b5094505050505060405180910390f35b3480156103fd57600080fd5b50610211600160a060020a036004351661119f565b34801561041e57600080fd5b506101b660043560243515156111ab565b34801561043b57600080fd5b506101df6113fd565b34801561045057600080fd5b5061045c600435611421565b60408051602080825283518183015283519192839290830191858101910280838360005b83811015610498578181015183820152602001610480565b505050509050019250505060405180910390f35b3480156104b857600080fd5b5061019261143a565b3480156104cd57600080fd5b5061045c600435611495565b3480156104e557600080fd5b506102116114f8565b3480156104fa57600080fd5b506102116114fd565b34801561050f57600080fd5b506101b6611503565b34801561052457600080fd5b50604080516020601f606435600481810135928301849004840285018401909552818452610211948035946024803595600160a060020a0360443516953695608494930191819084018382808284375050604080516020601f89358b018035918201839004830284018301909452808352979a99988101979196509182019450925082915084018382808284375050604080516020601f89358b018035918201839004830284018301909452808352979a99988101979196509182019450925082915084018382808284375094975061150c9650505050505050565b34801561060c57600080fd5b50604080516020600460443581810135601f8101849004840285018401909552848452610211948235600160a060020a03169460248035953695946064949201919081908401838280828437509497506119c99650505050505050565b34801561067557600080fd5b506101df611c8a565b34801561068a57600080fd5b50610211611cae565b34801561069f57600080fd5b506106ab600435611cb3565b6040518087815260200186815260200185600160a060020a0316600160a060020a03168152602001806020018060200180602001848103845287818151815260200191508051906020019080838360005b838110156107145781810151838201526020016106fc565b50505050905090810190601f1680156107415780820380516001836020036101000a031916815260200191505b50848103835286518152865160209182019188019080838360005b8381101561077457818101518382015260200161075c565b50505050905090810190601f1680156107a15780820380516001836020036101000a031916815260200191505b50848103825285518152855160209182019187019080838360005b838110156107d45781810151838201526020016107bc565b50505050905090810190601f1680156108015780820380516001836020036101000a031916815260200191505b50995050505050505050505060405180910390f35b34801561082257600080fd5b50610211611ce0565b34801561083757600080fd5b50610192600435611ce6565b34801561084f57600080fd5b506101b6600435602435611d39565b34801561086a57600080fd5b50610192600435611d4d565b34801561088257600080fd5b50610192600160a060020a0360043516611da0565b3480156108a357600080fd5b50610211611dd4565b600160e060020a03191660009081526020819052604090205460ff1690565b7f01ffc9a7000000000000000000000000000000000000000000000000000000005b90565b600181565b60606000806109026133e3565b6000858152600360209081526040918290208251815460a09381028201840190945260808101848152909391928492606084019285928492849187018282801561096b57602002820191906000526020600020905b815481526020019060010190808311610957575b5050509190925250505081526002820154602080830191909152600390920154604091820152825151918301519201519097919650945092505050565b60065460ff1681565b60006109bb611dda565b15156109c657600080fd5b60065460ff16156109d657600080fd5b6109e86003858563ffffffff611e1016565b156109f557506000610a04565b610a00848484611e47565b5060015b9392505050565b600281565b60025481565b610a1e611dda565b1515610a2957600080fd5b60065460ff161515610a3a57600080fd5b6006805460ff191690556040517fa45f47fdea8a1efdd9029a5691c7f759c32b7c698632b563573e155625d1693390600090a1565b6000610a7961340b565b60065460ff1615610a8957600080fd5b826000610a9d60098363ffffffff611e8e16565b50919450505050600160a060020a03821615159050610abb57600080fd5b610ac3611dda565b15610acd57610c2e565b33600160a060020a0382161415610ae357610c2e565b610b04610aee6113fd565b600160a060020a0383169063ffffffff6120de16565b15610ba15780600160a060020a031663d202158d610b213361119f565b6040805160e060020a63ffffffff85160281526004810192909252600260248301525160448083019260209291908290030181600087803b158015610b6557600080fd5b505af1158015610b79573d6000803e3d6000fd5b505050506040513d6020811015610b8f57600080fd5b50511515610b9c57600080fd5b610c2e565b604080517f08c379a000000000000000000000000000000000000000000000000000000000815260206004820152602a60248201527f53656e646572206973204e4f54204d616e6167656d656e74206f722053656c6660448201527f206f722049737375657200000000000000000000000000000000000000000000606482015290519081900360840190fd5b600085815260096020908152604091829020825160c0810184528154815260018083015482850152600280840154600160a060020a0316838701526003840180548751601f948216156101000260001901909116929092049283018690048602820186019096528181529194929360608601939190830182828015610cf45780601f10610cc957610100808354040283529160200191610cf4565b820191906000526020600020905b815481529060010190602001808311610cd757829003601f168201915b505050918352505060048201805460408051602060026001851615610100026000190190941693909304601f8101849004840282018401909252818152938201939291830182828015610d885780601f10610d5d57610100808354040283529160200191610d88565b820191906000526020600020905b815481529060010190602001808311610d6b57829003601f168201915b505050918352505060058201805460408051602060026001851615610100026000190190941693909304601f8101849004840282018401909252818152938201939291830182828015610e1c5780601f10610df157610100808354040283529160200191610e1c565b820191906000526020600020905b815481529060010190602001808311610dff57829003601f168201915b505050919092525050506040810151909350600160a060020a03161515610e4257600080fd5b610e5360098663ffffffff61219316565b15610ff8578260400151600160a060020a0316836000015186600019167f3cf57863a89432c61c4a27073c6ee39e8a764bff5a05aebfbcdcdc80b2e6130a8660200151876060015188608001518960a0015160405180858152602001806020018060200180602001848103845287818151815260200191508051906020019080838360005b83811015610ef0578181015183820152602001610ed8565b50505050905090810190601f168015610f1d5780820380516001836020036101000a031916815260200191505b50848103835286518152865160209182019188019080838360005b83811015610f50578181015183820152602001610f38565b50505050905090810190601f168015610f7d5780820380516001836020036101000a031916815260200191505b50848103825285518152855160209182019187019080838360005b83811015610fb0578181015183820152602001610f98565b50505050905090810190601f168015610fdd5780820380516001836020036101000a031916815260200191505b5097505050505050505060405180910390a460019350610ffd565b600093505b505050919050565b600080611010611dda565b151561101b57600080fd5b60065460ff161561102b57600080fd5b61103d6003858563ffffffff611e1016565b151561104c57600091506110e2565b600183141561107557600154600161106385611495565b5103101561107057600080fd5b611099565b600283141561109957600254600161108c85611495565b5103101561109957600080fd5b6110ab6003858563ffffffff6124b216565b6040519091508190849086907f585a4aef50f8267a92b32412b331b20f7f8b96f2245b253b9cc50dcc621d339790600090a4600191505b5092915050565b60086020908152600091825260409182902080546001808301546002808501805488516101009582161595909502600019011691909104601f8101879004870284018701909752868352600160a060020a039093169590949192918301828280156111955780601f1061116a57610100808354040283529160200191611195565b820191906000526020600020905b81548152906001019060200180831161117857829003601f168201915b5050505050905083565b600160a060020a031690565b6006546000908190819060ff16156111c257600080fd5b8415156111ce57600080fd5b60008581526008602052604090208054909250600160a060020a031615156111f557600080fd5b8154600160a060020a0316301415611237576112236112133361119f565b600390600163ffffffff611e1016565b151561122e57600080fd5b50600154611263565b6112536112433361119f565b600390600263ffffffff611e1016565b151561125e57600080fd5b506002545b604080518515158152905186917fb3932da477fe5d6c8ff2eafef050c0f3a1af18fc07121001482600f36f3715d8919081900360200190a28315156112b3576112ac85336126b7565b92506113f5565b6112bd85336127b4565b50600382015481116113f057604080516080810182528354600160a060020a031681526001808501546020808401919091526002808701805486516101009582161595909502600019011691909104601f810183900483028401830186528084526112ac958b9594899491860193909290918301828280156113805780601f1061135557610100808354040283529160200191611380565b820191906000526020600020905b81548152906001019060200180831161136357829003601f168201915b50505050508152602001600382018054806020026020016040519081016040528092919081815260200182805480156113e257602002820191906000526020600020905b8154600160a060020a031681526001909101906020018083116113c4575b50505050508152505061284e565b600192505b505092915050565b7fdc3d2a7b0000000000000000000000000000000000000000000000000000000090565b606061143460098363ffffffff612aac16565b92915050565b611442611dda565b151561144d57600080fd5b60065460ff161561145d57600080fd5b6006805460ff191660011790556040517f9e87fac88ff661f02d44f95383c817fece4bce600a3dab7a54406878b965e75290600090a1565b6000818152600460209081526040918290208054835181840281018401909452808452606093928301828280156114ec57602002820191906000526020600020905b815481526001909101906020018083116114d7575b50505050509050919050565b600481565b60015481565b60065460ff1690565b60065460009081908190819060ff161561152557600080fd5b60018914156115465761153b8a8a8a8a8a612b12565b151561154657600080fd5b61154e611dda565b159250821561179c576040517fb61d27f600000000000000000000000000000000000000000000000000000000815230600482018181526000602484018190526060604485019081523660648601819052939463b61d27f694869484939192909190608401848480828437820191505095505050505050602060405180830381600087803b1580156115df57600080fd5b505af11580156115f3573d6000803e3d6000fd5b505050506040513d602081101561160957600080fd5b8101908080519060200190929190505050935087600160a060020a03168a857fe6b6db97dedfb44cbced367387e40b3f92dbee1b1be87f9367f7b673532b0d698c8b8b8b60405180858152602001806020018060200180602001848103845287818151815260200191508051906020019080838360005b83811015611698578181015183820152602001611680565b50505050905090810190601f1680156116c55780820380516001836020036101000a031916815260200191505b50848103835286518152865160209182019188019080838360005b838110156116f85781810151838201526020016116e0565b50505050905090810190601f1680156117255780820380516001836020036101000a031916815260200191505b50848103825285518152855160209182019187019080838360005b83811015611758578181015183820152602001611740565b50505050905090810190601f1680156117855780820380516001836020036101000a031916815260200191505b5097505050505050505060405180910390a46119bc565b6117b260098b8b8b8b8b8b63ffffffff612e1c16565b9092509050801561183c5787600160a060020a03168a83600019167f46149b18aa084502c3f12bc75e19eda8bda8d102b82cce8474677a6d0d5f43c58c8b8b8b604051808581526020018060200180602001806020018481038452878181518152602001915080519060200190808383600083811015611698578181015183820152602001611680565b87600160a060020a03168a83600019167f3bab293fc00db832d7619a9299914251b8747c036867ec056cbd506f60135b138c8b8b8b60405180858152602001806020018060200180602001848103845287818151815260200191508051906020019080838360005b838110156118bc5781810151838201526020016118a4565b50505050905090810190601f1680156118e95780820380516001836020036101000a031916815260200191505b50848103835286518152865160209182019188019080838360005b8381101561191c578181015183820152602001611904565b50505050905090810190601f1680156119495780820380516001836020036101000a031916815260200191505b50848103825285518152855160209182019187019080838360005b8381101561197c578181015183820152602001611964565b50505050905090810190601f1680156119a95780820380516001836020036101000a031916815260200191505b5097505050505050505060405180910390a45b5050509695505050505050565b60008060006119d661344b565b60065460ff16156119e657600080fd5b600780546001810190915560008181526008602052604090209094506003019250600160a060020a038716301415611a6957600154915033301415611a2a57611a64565b611a366112133361119f565b1515611a4157600080fd5b8254600181018455600084815260209020018054600160a060020a031916331790555b611aca565b600160a060020a0387161515611a7e57600080fd5b600254915033301415611a9057611aca565b611a9c6112433361119f565b1515611aa757600080fd5b8254600181018455600084815260209020018054600160a060020a031916331790555b8587600160a060020a0316857f8afcfabcb00e47a53a8fc3e9f23ff47ee1926194bb1350dd007c50b412a6cee8886040518080602001828103825283818151815260200191508051906020019080838360005b83811015611b35578181015183820152602001611b1d565b50505050905090810190601f168015611b625780820380516001836020036101000a031916815260200191505b509250505060405180910390a460806040519081016040528088600160a060020a0316815260200187815260200186815260200184805480602002602001604051908101604052809291908181526020018280548015611beb57602002820191906000526020600020905b8154600160a060020a03168152600190910190602001808311611bcd575b50505091909252505083549091508211611c0f57611c09848261284e565b50611c80565b60008481526008602090815260409182902083518154600160a060020a031916600160a060020a03909116178155838201516001820155918301518051849392611c6092600285019291019061347d565b5060608201518051611c7c9160038401916020909101906134fb565b5050505b5050509392505050565b7fb6b4ee6d0000000000000000000000000000000000000000000000000000000090565b600381565b6000808060608080611ccc60098863ffffffff611e8e16565b949c939b5091995097509550909350915050565b60055490565b60065460009060ff1615611cf957600080fd5b611d01611dda565b1515611d0c57600080fd5b60008211611d1957600080fd5b611d236001611495565b51905080821115611d3357600080fd5b50600155565b6000610a046003848463ffffffff611e1016565b60065460009060ff1615611d6057600080fd5b611d68611dda565b1515611d7357600080fd5b60008211611d8057600080fd5b611d8a6002611495565b51905080821115611d9a57600080fd5b50600255565b611da8611dda565b1515611db357600080fd5b600160a060020a0381161515611dc857600080fd5b80600160a060020a0316ff5b600b5490565b600033301415611dec575060016108ed565b60015460011415611e0a57611e036112133361119f565b90506108ed565b50600090565b600082815260208490526040812060038101541515611e325760009150611e3f565b611e3c818461303e565b91505b509392505050565b611e5a600384848463ffffffff6130e716565b6040518190839085907f480000bb1edad8ca1470381cc334b1917fbd51c6531f3a623ea8e0ec7e38a6e990600090a4505050565b60008060006060806060611ea061340b565b611eaa89896132c9565b1515611eb557600080fd5b600088815260208a8152604091829020825160c0810184528154815260018083015482850152600280840154600160a060020a0316838701526003840180548751601f948216156101000260001901909116929092049283018690048602820186019096528181529194929360608601939190830182828015611f795780601f10611f4e57610100808354040283529160200191611f79565b820191906000526020600020905b815481529060010190602001808311611f5c57829003601f168201915b505050918352505060048201805460408051602060026001851615610100026000190190941693909304601f810184900484028201840190925281815293820193929183018282801561200d5780601f10611fe25761010080835404028352916020019161200d565b820191906000526020600020905b815481529060010190602001808311611ff057829003601f168201915b505050918352505060058201805460408051602060026001851615610100026000190190941693909304601f81018490048402820184019092528181529382019392918301828280156120a15780601f10612076576101008083540402835291602001916120a1565b820191906000526020600020905b81548152906001019060200180831161208457829003601f168201915b5050509190925250508151602083015160408401516060850151608086015160a090960151939f929e50909c509a50929850965090945050505050565b6000808061210c857f01ffc9a7000000000000000000000000000000000000000000000000000000006132ea565b909250905081158061211c575080155b1561212a57600092506113f5565b61213c85600160e060020a03196132ea565b909250905081158061214d57508015155b1561215b57600092506113f5565b61216585856132ea565b909250905060018214801561217a5750806001145b1561218857600192506113f5565b506000949350505050565b600061219d61340b565b60008381526020858152604091829020825160c0810184528154815260018083015482850152600280840154600160a060020a0316838701526003840180548751601f9482161561010002600019019091169290920492830186900486028201860190965281815291949293606086019391908301828280156122615780601f1061223657610100808354040283529160200191612261565b820191906000526020600020905b81548152906001019060200180831161224457829003601f168201915b505050918352505060048201805460408051602060026001851615610100026000190190941693909304601f81018490048402820184019092528181529382019392918301828280156122f55780601f106122ca576101008083540402835291602001916122f5565b820191906000526020600020905b8154815290600101906020018083116122d857829003601f168201915b505050918352505060058201805460408051602060026001851615610100026000190190941693909304601f81018490048402820184019092528181529382019392918301828280156123895780601f1061235e57610100808354040283529160200191612389565b820191906000526020600020905b81548152906001019060200180831161236c57829003601f168201915b505050505081525050905061239e84846132c9565b15156123ad57600091506110e2565b600083815260208590526040812081815560018101829055600281018054600160a060020a0319169055906123e5600383018261355c565b6123f360048301600061355c565b61240160058301600061355c565b50508051600090815260018501602052604080822081517ff9eb626d000000000000000000000000000000000000000000000000000000008152600481019190915260248101869052905173__Arrays________________________________9263f9eb626d9260448082019391829003018186803b15801561248357600080fd5b505af4158015612497573d6000803e3d6000fd5b50505060028501805460001901905550600191505092915050565b60008281526020849052604081206124ca818461303e565b151561253757604080517f08c379a000000000000000000000000000000000000000000000000000000000815260206004820152601960248201527f4b657920646f6573206e6f74206861766520707572706f736500000000000000604482015290519081900360640190fd5b6002810154604080517f351dde770000000000000000000000000000000000000000000000000000000081526004810184905260248101869052905191935073__Arrays________________________________9163351dde7791604480820192600092909190829003018186803b1580156125b257600080fd5b505af41580156125c6573d6000803e3d6000fd5b505050600085815260208790526040902054151590506126195760008481526020869052604081209081816125fb82826135a3565b50506000600283810182905560039093015550850180546000190190555b600083815260018601602052604080822081517ff9eb626d000000000000000000000000000000000000000000000000000000008152600481019190915260248101879052905173__Arrays________________________________9263f9eb626d9260448082019391829003018186803b15801561269757600080fd5b505af41580156126ab573d6000803e3d6000fd5b50505050509392505050565b6000828152600860205260408120600301815b81548110156121885783600160a060020a031682828154811015156126eb57fe5b600091825260209091200154600160a060020a031614156127ac5781548290600019810190811061271857fe5b6000918252602090912001548254600160a060020a039091169083908390811061273e57fe5b60009182526020909120018054600160a060020a031916600160a060020a039290921691909117905581548290600019810190811061277957fe5b60009182526020909120018054600160a060020a031916905581546127a28360001983016135c1565b50600192506113f5565b6001016126ca565b6000828152600860205260408120600301815b81548110156128145783600160a060020a031682828154811015156127e857fe5b600091825260209091200154600160a060020a0316141561280c57600092506113f5565b6001016127c7565b8154600181810184556000848152602090209091018054600160a060020a038716600160a060020a03199091161790559250505092915050565b80516000908190600160a060020a0316151561286957600080fd5b8260000151600160a060020a03168360200151846040015160405180828051906020019080838360005b838110156128ab578181015183820152602001612893565b50505050905090810190601f1680156128d85780820380516001836020036101000a031916815260200191505b5091505060006040518083038185875af19250505090508015156129b05782602001518360000151600160a060020a0316857fe10c49d9f7c71da23262367013434763cfdb2332267641728d25cd712c5c6a6886604001516040518080602001828103825283818151815260200191508051906020019080838360005b8381101561296d578181015183820152602001612955565b50505050905090810190601f16801561299a5780820380516001836020036101000a031916815260200191505b509250505060405180910390a4600091506110e2565b82602001518360000151600160a060020a0316857f1f920dbda597d7bf95035464170fa58d0a4b57f13a1c315ace6793b9f63688b886604001516040518080602001828103825283818151815260200191508051906020019080838360005b83811015612a27578181015183820152602001612a0f565b50505050905090810190601f168015612a545780820380516001836020036101000a031916815260200191505b509250505060405180910390a460008481526008602052604081208054600160a060020a03191681556001810182905590612a92600283018261355c565b612aa06003830160006135a3565b50600195945050505050565b6000818152600183016020908152604091829020805483518184028101840190945280845260609392830182828015612b0557602002820191906000526020600020905b81548152600190910190602001808311612af0575b5050505050905092915050565b6000806001861415612e0d5773__ClaimStore____________________________633b8a12c873__ClaimStore____________________________631d203be8308b886040518463ffffffff1660e060020a0281526004018084600160a060020a0316600160a060020a0316815260200183815260200180602001828103825283818151815260200191508051906020019080838360005b83811015612bc2578181015183820152602001612baa565b50505050905090810190601f168015612bef5780820380516001836020036101000a031916815260200191505b5094505050505060206040518083038186803b158015612c0e57600080fd5b505af4158015612c22573d6000803e3d6000fd5b505050506040513d6020811015612c3857600080fd5b50516040805160e060020a63ffffffff851602815260048101838152602482019283528951604483015289518a93919260640190602085019080838360005b83811015612c8f578181015183820152602001612c77565b50505050905090810190601f168015612cbc5780820380516001836020036101000a031916815260200191505b50935050505060206040518083038186803b158015612cda57600080fd5b505af4158015612cee573d6000803e3d6000fd5b505050506040513d6020811015612d0457600080fd5b50519050600160a060020a038581169082161415612d255760019150612e12565b600160a060020a038516301415612d5857612d51612d428261119f565b6003908163ffffffff611e1016565b9150612e12565b612d79612d636113fd565b600160a060020a0387169063ffffffff6120de16565b15612e0d5784600160a060020a031663d202158d612d968361119f565b6040805160e060020a63ffffffff85160281526004810192909252600360248301525160448083019260209291908290030181600087803b158015612dda57600080fd5b505af1158015612dee573d6000803e3d6000fd5b505050506040513d6020811015612e0457600080fd5b50519150612e12565b600091505b5095945050505050565b6000806000612e2b878a613336565b9250612e378a846132c9565b15612e9e5750600082815260208a815260409091206001810189905586519091612e6891600384019189019061347d565b508451612e7e906004830190602088019061347d565b508351612e94906005830190602087019061347d565b5060009150613031565b60c0604051908101604052808a815260200189815260200188600160a060020a03168152602001878152602001868152602001858152508a60000160008560001916600019168152602001908152602001600020600082015181600001556020820151816001015560408201518160020160006101000a815481600160a060020a030219169083600160a060020a031602179055506060820151816003019080519060200190612f4f92919061347d565b5060808201518051612f6b91600484019160209091019061347d565b5060a08201518051612f8791600584019160209091019061347d565b505050600089815260018b01602052604080822081517f3004e44e000000000000000000000000000000000000000000000000000000008152600481019190915260248101869052905173__Arrays________________________________92633004e44e9260448082019391829003018186803b15801561300857600080fd5b505af415801561301c573d6000803e3d6000fd5b5050505060028a018054600190810190915591505b5097509795505050505050565b604080517f6c5fa4a30000000000000000000000000000000000000000000000000000000081526004810184905260248101839052905160009173__Arrays________________________________91636c5fa4a391604480820192602092909190829003018186803b1580156130b457600080fd5b505af41580156130c8573d6000803e3d6000fd5b505050506040513d60208110156130de57600080fd5b50519392505050565b60008381526020859052604090206003810154151561311d5760038101849055600280820183905585018054600101905561318f565b6002810154821461318f57604080517f08c379a000000000000000000000000000000000000000000000000000000000815260206004820181905260248201527f4b6579206578697374732c20636f6e666c696374696e67206b65792074797065604482015290519081900360640190fd5b613199818461303e565b15156132c257604080517fb7f663d70000000000000000000000000000000000000000000000000000000081526004810183905260248101859052905173__Arrays________________________________9163b7f663d7916044808301926000929190829003018186803b15801561321157600080fd5b505af4158015613225573d6000803e3d6000fd5b505050600084815260018701602052604080822081517f3004e44e000000000000000000000000000000000000000000000000000000008152600481019190915260248101889052905173__Arrays________________________________9350633004e44e92604480840193919291829003018186803b1580156132a957600080fd5b505af41580156132bd573d6000803e3d6000fd5b505050505b5050505050565b60009081526020919091526040902060020154600160a060020a0316151590565b6040517f01ffc9a70000000000000000000000000000000000000000000000000000000080825260048201839052600091829190602081818189617530fa905190969095509350505050565b600082826040516020018083600160a060020a0316600160a060020a03166c01000000000000000000000000028152601401828152602001925050506040516020818303038152906040526040518082805190602001908083835b602083106133b05780518252601f199092019160209182019101613391565b5181516020939093036101000a600019018019909116921691909117905260405192018290039091209695505050505050565b6060604051908101604052806133f76135ea565b815260006020820181905260409091015290565b60c06040519081016040528060008152602001600081526020016000600160a060020a031681526020016060815260200160608152602001606081525090565b6080604051908101604052806000600160a060020a031681526020016000815260200160608152602001606081525090565b828054600181600116156101000203166002900490600052602060002090601f016020900481019282601f106134be57805160ff19168380011785556134eb565b828001600101855582156134eb579182015b828111156134eb5782518255916020019190600101906134d0565b506134f79291506135fc565b5090565b828054828255906000526020600020908101928215613550579160200282015b828111156135505782518254600160a060020a031916600160a060020a0390911617825560209092019160019091019061351b565b506134f7929150613616565b50805460018160011615610100020316600290046000825580601f1061358257506135a0565b601f0160209004906000526020600020908101906135a091906135fc565b50565b50805460008255906000526020600020908101906135a091906135fc565b8154818355818111156135e5576000838152602090206135e59181019083016135fc565b505050565b60408051602081019091526060815290565b6108ed91905b808211156134f75760008155600101613602565b6108ed91905b808211156134f7578054600160a060020a031916815560010161361c5600a165627a7a72305820110d77bd7fa2eac7e40ddb32ccf0ed1a587f7cce001357b24fc0758dc8a569f90029",
  "source": "pragma solidity 0.4.24;\n\nimport \"./lifecycle/KeyDestructible.sol\";\nimport \"./KeyGetters.sol\";\nimport \"./KeyManager.sol\";\nimport \"./MultiSig.sol\";\nimport \"./ClaimManager.sol\";\n\n\n/**\n * @title Identity\n * @author Wu Di\n * @notice Identity contract implementing both ERC725 and ERC735\n */\ncontract Identity is KeyManager, MultiSig, ClaimManager, KeyGetters, KeyDestructible {\n    /**\n     * @dev Constructor for Identity contract. The initial owner address\n     *  will be set as the MANAGEMENT_KEY, ACTION_KEY and CLAIM_SIGNER_KEY\n     * @param _identityOwner Address of the identity owner\n     */\n    constructor(address _identityOwner) public {\n        bytes32 ownerKey = addrToKey(_identityOwner);\n        // Add key that deployed the contract for MANAGEMENT, ACTION, CLAIM\n        _addKey(ownerKey, MANAGEMENT_KEY, ECDSA_TYPE);\n        _addKey(ownerKey, ACTION_KEY, ECDSA_TYPE);\n        _addKey(ownerKey, CLAIM_SIGNER_KEY, ECDSA_TYPE);\n        actionThreshold = 1;\n        managementThreshold = 1;\n\n        // Supports both ERC 725 & 735\n        supportedInterfaces[ERC725ID() ^ ERC735ID()] = true;\n    }\n\n    // Fallback function accepts Ether transactions\n    // solhint-disable-next-line no-empty-blocks\n    function() external payable {\n    }\n}",
  "sourcePath": "/Users/lookrain/Documents/work/rate3-monorepo/packages/demo/identity/contracts/Identity.sol",
  "compiler": {
    "name": "solc",
    "version": "0.4.24+commit.e67f0147.Emscripten.clang"
  },
  "schemaVersion": "2.0.1",
  "updatedAt": "2018-09-19T08:24:13.125Z"
}