{
  "contractName": "KeyEnums",
  "abi": [
    {
      "constant": true,
      "inputs": [],
      "name": "MANAGEMENT_KEY",
      "outputs": [
        {
          "name": "",
          "type": "uint256"
        }
      ],
      "payable": false,
      "stateMutability": "view",
      "type": "function"
    },
    {
      "constant": true,
      "inputs": [],
      "name": "RSA_TYPE",
      "outputs": [
        {
          "name": "",
          "type": "uint256"
        }
      ],
      "payable": false,
      "stateMutability": "view",
      "type": "function"
    },
    {
      "constant": true,
      "inputs": [],
      "name": "ECDSA_TYPE",
      "outputs": [
        {
          "name": "",
          "type": "uint256"
        }
      ],
      "payable": false,
      "stateMutability": "view",
      "type": "function"
    },
    {
      "constant": true,
      "inputs": [],
      "name": "ACTION_KEY",
      "outputs": [
        {
          "name": "",
          "type": "uint256"
        }
      ],
      "payable": false,
      "stateMutability": "view",
      "type": "function"
    },
    {
      "constant": true,
      "inputs": [],
      "name": "ENCRYPTION_KEY",
      "outputs": [
        {
          "name": "",
          "type": "uint256"
        }
      ],
      "payable": false,
      "stateMutability": "view",
      "type": "function"
    },
    {
      "constant": true,
      "inputs": [],
      "name": "CLAIM_SIGNER_KEY",
      "outputs": [
        {
          "name": "",
          "type": "uint256"
        }
      ],
      "payable": false,
      "stateMutability": "view",
      "type": "function"
    }
  ],
  "bytecode": "0x608060405234801561001057600080fd5b5061010f806100206000396000f30060806040526004361060705763ffffffff7c0100000000000000000000000000000000000000000000000000000000600035041663058b316c811460755780632d32d44214609957806349991ec814607557806375e5598c1460995780639e140cc81460ab578063c67021871460bd575b600080fd5b348015608057600080fd5b50608760cf565b60408051918252519081900360200190f35b34801560a457600080fd5b50608760d4565b34801560b657600080fd5b50608760d9565b34801560c857600080fd5b50608760de565b600181565b600281565b600481565b6003815600a165627a7a72305820d293a2b4953bda8d664ee4a5f6b4793ccb9356348e7a23a9defa9c7be56ef7d80029",
  "source": "pragma solidity 0.4.24;\n\n\n/**\n * @title KeyEnums\n * @author Wu Di\n * @notice Constants for ERC725 keys\n */\ncontract KeyEnums {\n    uint256 public constant MANAGEMENT_KEY = 1;\n    uint256 public constant ACTION_KEY = 2;\n    uint256 public constant CLAIM_SIGNER_KEY = 3;\n    uint256 public constant ENCRYPTION_KEY = 4;\n\n    uint256 public constant ECDSA_TYPE = 1;\n    uint256 public constant RSA_TYPE = 2;\n}\n",
  "sourcePath": "/Users/lookrain/Documents/work/rate3-monorepo/packages/demo/identity/contracts/constants/KeyEnums.sol",
  "compiler": {
    "name": "solc",
    "version": "0.4.24+commit.e67f0147.Emscripten.clang"
  },
  "schemaVersion": "2.0.1",
  "updatedAt": "2018-09-20T03:59:34.971Z"
}