{
  "contractName": "KeyStore",
  "abi": [
    {
      "constant": true,
      "inputs": [
        {
          "name": "addr",
          "type": "address"
        }
      ],
      "name": "addrToKey",
      "outputs": [
        {
          "name": "",
          "type": "bytes32"
        }
      ],
      "payable": false,
      "stateMutability": "pure",
      "type": "function"
    },
    {
      "constant": true,
      "inputs": [
        {
          "name": "self",
          "type": "KeyStore.Key storage"
        },
        {
          "name": "purpose",
          "type": "uint256"
        }
      ],
      "name": "hasPurpose",
      "outputs": [
        {
          "name": "exists",
          "type": "bool"
        }
      ],
      "payable": false,
      "stateMutability": "view",
      "type": "function"
    },
    {
      "constant": true,
      "inputs": [
        {
          "name": "self",
          "type": "KeyStore.Keys storage"
        },
        {
          "name": "key",
          "type": "bytes32"
        },
        {
          "name": "purpose",
          "type": "uint256"
        }
      ],
      "name": "find",
      "outputs": [
        {
          "name": "found",
          "type": "bool"
        }
      ],
      "payable": false,
      "stateMutability": "view",
      "type": "function"
    },
    {
      "constant": false,
      "inputs": [
        {
          "name": "self",
          "type": "KeyStore.Keys storage"
        },
        {
          "name": "key",
          "type": "bytes32"
        },
        {
          "name": "purpose",
          "type": "uint256"
        },
        {
          "name": "keyType",
          "type": "uint256"
        }
      ],
      "name": "add",
      "outputs": [
        {
          "name": "success",
          "type": "bool"
        }
      ],
      "payable": false,
      "stateMutability": "nonpayable",
      "type": "function"
    },
    {
      "constant": false,
      "inputs": [
        {
          "name": "self",
          "type": "KeyStore.Keys storage"
        },
        {
          "name": "key",
          "type": "bytes32"
        },
        {
          "name": "purpose",
          "type": "uint256"
        }
      ],
      "name": "remove",
      "outputs": [
        {
          "name": "keyType",
          "type": "uint256"
        }
      ],
      "payable": false,
      "stateMutability": "nonpayable",
      "type": "function"
    }
  ],
  "bytecode": "0x610635610030600b82828239805160001a6073146000811461002057610022565bfe5b5030600052607381538281f30073000000000000000000000000000000000000000030146080604052600436106100835763ffffffff7c010000000000000000000000000000000000000000000000000000000060003504166341c776128114610088578063473cee21146100ad57806363f14c3c146100ce5780637975b5c314610101578063e756eff01461011f575b600080fd5b61009960043560243560443561012d565b604080519115158252519081900360200190f35b8180156100b957600080fd5b50610099600435602435604435606435610166565b6100ef73ffffffffffffffffffffffffffffffffffffffff600435166102fb565b60408051918252519081900360200190f35b81801561010d57600080fd5b506100ef600435602435604435610314565b61009960043560243561051e565b6000828152600184016020526040812060038101541515610151576000915061015e565b61015b818461051e565b91505b509392505050565b600083815260018501602052604081206003810154151561019e576003808201869055600282018490558601805460010190556101b2565b600281015483146101b257600091506102f2565b6101bc818561051e565b15156102ed57604080517fb7f663d70000000000000000000000000000000000000000000000000000000081526004810183905260248101869052905173__Arrays________________________________9163b7f663d7916044808301926000929190829003018186803b15801561023457600080fd5b505af4158015610248573d6000803e3d6000fd5b505050600085815260028801602052604080822081517f3004e44e000000000000000000000000000000000000000000000000000000008152600481019190915260248101899052905173__Arrays________________________________9350633004e44e92604480840193919291829003018186803b1580156102cc57600080fd5b505af41580156102e0573d6000803e3d6000fd5b50505050600191506102f2565b600091505b50949350505050565b73ffffffffffffffffffffffffffffffffffffffff1690565b6000828152600184016020526040812061032e818461051e565b151561039b57604080517f08c379a000000000000000000000000000000000000000000000000000000000815260206004820152601960248201527f4b657920646f6573206e6f74206861766520707572706f736500000000000000604482015290519081900360640190fd5b6002810154604080517f351dde770000000000000000000000000000000000000000000000000000000081526004810184905260248101869052905191935073__Arrays________________________________9163351dde7791604480820192600092909190829003018186803b15801561041657600080fd5b505af415801561042a573d6000803e3d6000fd5b505050600085815260018701602052604090205415159050610480576000848152600186016020526040812090818161046382826105c7565b505060006002830181905560039283015550850180546000190190555b600083815260028601602052604080822081517ff9eb626d000000000000000000000000000000000000000000000000000000008152600481019190915260248101879052905173__Arrays________________________________9263f9eb626d9260448082019391829003018186803b1580156104fe57600080fd5b505af4158015610512573d6000803e3d6000fd5b50505050509392505050565b604080517f6c5fa4a30000000000000000000000000000000000000000000000000000000081526004810184905260248101839052905160009173__Arrays________________________________91636c5fa4a391604480820192602092909190829003018186803b15801561059457600080fd5b505af41580156105a8573d6000803e3d6000fd5b505050506040513d60208110156105be57600080fd5b50519392505050565b50805460008255906000526020600020908101906105e591906105e8565b50565b61060691905b8082111561060257600081556001016105ee565b5090565b905600a165627a7a723058209bc8d676ec867338380cf1ac926235ee110aed33da6a11b738f85bb279271d3e0029",
  "source": "pragma solidity 0.4.24;\n\nimport \"../Arrays.sol\";\nimport \"../constants/KeyEnums.sol\";\n\n\n/**\n * @title KeyStore\n * @author Wu Di\n * @notice Library for managing ERC725 keys\n * Inspired by Mircea Pasoi's implementation at https://github.com/mirceapasoi/erc725-735\n */\nlibrary KeyStore {\n\n    using Arrays for Arrays.uint256NoDup;\n    using Arrays for Arrays.bytes32NoDup;\n\n    /**\n     * @dev Convert an Ethereum address (20 bytes) to an ERC725 key (32 bytes)\n     * @dev It's just a simple typecast, but it's especially useful in tests\n     */\n    function addrToKey(address addr)\n        public\n        pure\n        returns (bytes32)\n    {\n        return bytes32(addr);\n    }\n\n    struct Key {\n        // MANAGEMENT_KEY = 1, ACTION_KEY = 2, SIGN_KEY = 3, ENCRYPTION_KEY = 4\n        Arrays.uint256NoDup purposes;\n        // ECDSA = 1, RSA = 2\n        uint256 keyType;\n        // for non-hex and long keys, its the Keccak256 hash of the key\n        bytes32 key;\n    }\n\n    /**\n     * @dev Check for purpose in key\n     * @param purpose Purpose to check for\n     */\n    function hasPurpose(Key storage self, uint256 purpose)\n        public\n        view\n        returns (bool exists)\n    {\n        return self.purposes.contains(purpose);\n    }\n\n    struct Keys {\n        KeyEnums enums;\n        mapping (bytes32 => Key) keyData;\n        mapping (uint256 => Arrays.bytes32NoDup) keysByPurpose;\n        uint numKeys;\n    }\n\n    /**\n     * @dev Find a key + purpose tuple\n     * @param key Key bytes to find\n     * @param purpose Purpose to find\n     * @return `true` if key + purpose tuple if found\n     */\n    function find(Keys storage self, bytes32 key, uint256 purpose)\n        public\n        view\n        returns (bool found)\n    {\n        Key storage k = self.keyData[key];\n        if (k.key == 0) {\n            return false;\n        }\n        return hasPurpose(k, purpose);\n    }\n\n    /**\n     * @dev Add a Key\n     * @param key Key bytes to add\n     * @param purpose Purpose to add, will append to purposes if key exists\n     * @param keyType Key type to add, will only be set if key does not exist\n     * @return `true` if key was added, `false` if it already exists\n     */\n    function add(Keys storage self, bytes32 key, uint256 purpose, uint256 keyType)\n        public\n        returns (bool success)\n    {\n        Key storage k = self.keyData[key];\n        if (k.key == 0) {\n            k.key = key;\n            k.keyType = keyType;\n            self.numKeys++;\n        } else if (k.keyType != keyType) {\n            return false;\n        }\n        if (!hasPurpose(k, purpose)) {\n            k.purposes.add(purpose);\n            self.keysByPurpose[purpose].add(key);\n            return true;\n        }\n        return false;\n    }\n\n    /**\n     * @dev Remove Key\n     * @param key Key bytes to remove\n     * @param purpose Purpose to remove\n     * @return Key type of the key that was removed\n     */\n    function remove(Keys storage self, bytes32 key, uint256 purpose)\n        public\n        returns (uint256 keyType)\n    {\n        Key storage k = self.keyData[key];\n\n        require(hasPurpose(k, purpose), \"Key does not have purpose\");\n\n        keyType = k.keyType;\n        k.purposes.remove(purpose);\n\n        // No more purposes\n        if (self.keyData[key].purposes.values.length == 0) {\n            delete self.keyData[key];\n            self.numKeys--;\n        }\n\n        // Delete key from keysByPurpose\n        self.keysByPurpose[purpose].remove(key);\n    }\n}",
  "sourcePath": "/Users/lookrain/Documents/work/rate3-monorepo/packages/demo/identity/contracts/lib/KeyStore.sol",
  "compiler": {
    "name": "solc",
    "version": "0.4.24+commit.e67f0147.Emscripten.clang"
  },
  "schemaVersion": "2.0.1",
  "updatedAt": "2018-09-20T03:59:34.680Z"
}