{
  "contractName": "TestContract",
  "abi": [
    {
      "constant": true,
      "inputs": [
        {
          "name": "",
          "type": "address"
        }
      ],
      "name": "numCalls",
      "outputs": [
        {
          "name": "",
          "type": "uint256"
        }
      ],
      "payable": false,
      "stateMutability": "view",
      "type": "function"
    },
    {
      "anonymous": false,
      "inputs": [
        {
          "indexed": false,
          "name": "data",
          "type": "bytes"
        }
      ],
      "name": "IdentityCalled",
      "type": "event"
    },
    {
      "constant": false,
      "inputs": [],
      "name": "callMe",
      "outputs": [],
      "payable": false,
      "stateMutability": "nonpayable",
      "type": "function"
    },
    {
      "constant": false,
      "inputs": [],
      "name": "whoCalling",
      "outputs": [],
      "payable": false,
      "stateMutability": "nonpayable",
      "type": "function"
    }
  ],
  "bytecode": "0x608060405234801561001057600080fd5b5061053d806100206000396000f3006080604052600436106100565763ffffffff7c01000000000000000000000000000000000000000000000000000000006000350416630d26cf7f811461005b578063840f724914610072578063b0bea725146100b2575b600080fd5b34801561006757600080fd5b506100706100c7565b005b34801561007e57600080fd5b506100a073ffffffffffffffffffffffffffffffffffffffff600435166104e7565b60408051918252519081900360200190f35b3480156100be57600080fd5b506100706104f9565b604080517fe9c543840000000000000000000000000000000000000000000000000000000081523360048201527fb6b4ee6d0000000000000000000000000000000000000000000000000000000060248201529051600091606091829173__ERC165Query___________________________9163e9c5438491604480820192602092909190829003018186803b15801561016057600080fd5b505af4158015610174573d6000803e3d6000fd5b505050506040513d602081101561018a57600080fd5b5051151561019757600080fd5b604080517f80e9e9e1000000000000000000000000000000000000000000000000000000008152600060048201819052915133955085926380e9e9e1926024808201939182900301818387803b1580156101f057600080fd5b505af1158015610204573d6000803e3d6000fd5b505050506040513d6000823e601f3d908101601f19168201604052602081101561022d57600080fd5b81019080805164010000000081111561024557600080fd5b8201602081018481111561025857600080fd5b815185602082028301116401000000008211171561027557600080fd5b505092919050505091508273ffffffffffffffffffffffffffffffffffffffff1663c9100bcb8360058151811015156102aa57fe5b906020019060200201516040518263ffffffff167c0100000000000000000000000000000000000000000000000000000000028152600401808260001916600019168152602001915050600060405180830381600087803b15801561030e57600080fd5b505af1158015610322573d6000803e3d6000fd5b505050506040513d6000823e601f3d908101601f1916820160405260c081101561034b57600080fd5b815160208301516040840151606085018051939592949193918301929164010000000081111561037a57600080fd5b8201602081018481111561038d57600080fd5b81516401000000008111828201871017156103a757600080fd5b505092919060200180516401000000008111156103c357600080fd5b820160208101848111156103d657600080fd5b81516401000000008111828201871017156103f057600080fd5b5050929190602001805164010000000081111561040c57600080fd5b8201602081018481111561041f57600080fd5b815164010000000081118282018710171561043957600080fd5b50506040805160208082528751818301528751979c507f65b0c4fca8f1adcd4aaaa7c9fdd595a10b6881f37bd412bc84f8ebb43ea92fc49b508c9a5090985088975090870195908901945092508291508490508360005b838110156104a8578181015183820152602001610490565b50505050905090810190601f1680156104d55780820380516001836020036101000a031916815260200191505b509250505060405180910390a1505050565b60006020819052908152604090205481565b336000908152602081905260409020805460010190555600a165627a7a7230582042099ad7d4c4835074c9cd7ec74139a9290c11dcfc655fd5c180a3340e40e4fa0029",
  "source": "pragma solidity 0.4.24;\n\nimport \"./lib/ERC165Query.sol\";\nimport \"./ERC/ERC735.sol\";\n\n\n/**\n * @title TestContract\n * @author Mircea Pasoi\n * @dev Contract used in unit tests\n */\ncontract TestContract {\n    // Implements ERC165\n    using ERC165Query for address;\n\n    // Events\n    event IdentityCalled(bytes data);\n\n    // Counts calls by msg.sender\n    mapping (address => uint) public numCalls;\n\n    /**\n     * @dev Increments the number of calls from sender\n     */\n    function callMe() external {\n        numCalls[msg.sender] += 1;\n    }\n\n    /**\n     * @dev Expects to be called by an ERC735 contract and it will emit the label\n     *  of the first LABEL claim in that contract\n     */\n    function whoCalling() external {\n        // ERC735\n        require(msg.sender.doesContractImplementInterface(0xb6b4ee6d));\n        // Get first claim\n        ERC735 id = ERC735(msg.sender);\n        bytes32[] memory claimIds = id.getClaimIdsByTopic(0);\n        bytes memory data;\n        (, , , , data, ) = id.getClaim(claimIds[5]);\n        emit IdentityCalled(data);\n    }\n}\n",
  "sourcePath": "/Users/lookrain/Documents/work/rate3-monorepo/packages/demo/identity/contracts/TestContract.sol",
  "compiler": {
    "name": "solc",
    "version": "0.4.24+commit.e67f0147.Emscripten.clang"
  },
  "schemaVersion": "2.0.1",
  "updatedAt": "2018-09-20T03:57:15.619Z"
}